:1000000000600020F50B00001D0C00001F0C00001C
:10001000210C0000230C0000250C00000000000053
:10002000000000000000000000000000270C00009D
:10003000290C0000000000002B0C00002D0C00001B
:100040002F0C00002F0C0000310A00002F0C0000C4
:100050002F0C0000000000002F0C00002F0C0000EF
:100060002F0C00002F0C00002F0C00002F0C0000A4
:100070002F0C00002F0C00002F0C00002F0C000094
:100080002F0C00002F0C00002F0C00002F0C000084
:100090002F0C00002F0C00002F0C00002F0C000074
:1000A0002F0C00002F0C00000000000000000000DA
:1000B0002F0C00002F0C00000000000000000000CA
:1000C0000000000000000000000000000000000030
:1000D0000000000000000000000000000000000020
:1000E0000000000000000000000000000000000010
:1000F0000000000000000000000000000000000000
:1001000000000000000000000000000000000000EF
:1001100000000000000000000000000000000000DF
:1001200000000000000000000000000000000000CF
:1001300000000000000000000000000000000000BF
:1001400000000000000000000000000000000000AF
:10015000000000000000000000000000000000009F
:10016000000000000000000000000000000000008F
:10017000000000000000000000000000000000007F
:10018000000000000000000000000000000000006F
:10019000000000000000000000000000000000005F
:1001A000000000000000000000000000000000004F
:1001B000000000000000000000000000000000003F
:1001C000000000000000000000000000000000002F
:1001D000000000000000000000000000000000001F
:1001E000000000000000000000000000000000000F
:1001F00000000000000000000000000000000000FF
:1002000010B5054C237833B9044B13B10448AFF350
:1002100000800123237010BD80000020000000003A
:10022000BC0F00000C4B43B10C480D4910B5AFF3A7
:1002300000800C48036823B910BD0A48036833B92D
:100240007047094B002BF7D0BDE810401847064B0C
:10025000002BF5D0184700BF00000000BC0F0000C5
:10026000840000206C00002000000000154B002BD3
:1002700008BF134B9D46A3F5803A00218B460F46DD
:100280001348144A121A00F063F80F4B002B00D0E9
:1002900098470E4B002B00D0984700200021040007
:1002A0000D000D48002802D00C48AFF3008000F08C
:1002B0002BF82000290000F0F5FB00F011F800BF3A
:1002C00000000800006000200000000000000000A6
:1002D0008000002008020020000000000000000054
:1002E00008B5074B044613B10021AFF30080054B5E
:1002F0001868836A03B19847204600F031F800BFC0
:1003000000000000580F000070B50D4E0D4CA41BEE
:10031000A4100025A54209D10B4E0C4C00F010FE94
:10032000A41BA4100025A54205D170BD56F82530A8
:1003300098470135EEE756F8253098470135F2E742
:100340006400002064000020640000206800002099
:1003500002440346934200D1704703F8011BF9E7BA
:10036000FEE700BF2DE9F0415468136906460F46C9
:10037000154613F8012B002A44D12B7A002B45D1C6
:100380002B78990703D5EA68102A41D1023C13F073
:10039000090F08D1A046B8F1000F3EDC631E002C07
:1003A000ACBF1C1B1C46297A09B13046B8472B78D4
:1003B0009A070DD5EB68102B35D130213046B84760
:1003C0002B7813F0040F14BF582178213046B8471A
:1003D0002B78DB0708D5A046B8F1000F27DC631E99
:1003E000002CACBF1C1B1C46D5F8108018F8011B54
:1003F00019BB2B7803F00903082B01D1002C1FDC5B
:10040000BDE8F081002CB8DD013CB2E7013CB7E764
:10041000082A08BF04F1FF34B9E720213046B84765
:1004200008F1FF38B7E7082BD2D13021CEE73021D1
:100430003046B84708F1FF38CEE73046B847D5E731
:1004400020213046B847013CD8E7F0B50A69CC68AE
:100450000123B0FBF3F5A54203D200261BB91370AC
:10046000F0BD6343F5E7B0FBF3F5CC6803FB150083
:10047000B3FBF4F31EB9002D01DC002BEED1092DE6
:1004800002F101070ADD0C7814F0040F14BF3724C1
:1004900057242C44147001363A46DFE73024F8E73D
:1004A0002DE9F84FD2F810A0D668804689469346C9
:1004B00000270124002522462B464046494600F0ED
:1004C000B7FBB94208BFB04208D2002654EA050380
:1004D0000CD100238AF80030BDE8F88F04FB07F345
:1004E00006FB0533A4FB06451D44E4E722462B46E4
:1004F0004046494600F09CFB22462B4649460746AB
:10050000404600F095FB2046294690469946DBF888
:100510000C20002300F08CFB04460D4626B9002F6A
:1005200002DC54EA0503D1D1092F0AF101020CDDE6
:100530009BF8003013F0040F14BF372357231F44D8
:100540008AF8007001369246C0E73023F7E7084B7F
:1005500008490022C3F82021A02202FB0010C3F8A2
:100560004405D0F88020C3F8482501229A607047DE
:1005700000200040A000002070B52A4C94F84051A3
:10058000EDB2012D22D094F84031002B0BBF012594
:10059000002500220122D8B994F840312BB901205E
:1005A000FFF7D5FF032384F8403194F84031022B44
:1005B00005D10020FFF7CBFF012384F84031A023B1
:1005C00003FB0544022384F8843070BD0022E2E777
:1005D000A02303FB0543D3F880007F280BD8D3F872
:1005E00080209954D3F880200132C3F88020012262
:1005F00083F8842070BD0C4E06EB4202527894F8CA
:1006000040319A42FBD02846FFF7A1FFA02303FB0D
:10061000054306EB4505022283F884206B7884F8B5
:10062000403170BDA00000205C0F00000FB42DE928
:10063000F04F8DB0A44A16AC06AE54F8043BD2F885
:100640006071D2F8648100940596914619785D1C1A
:1006500049B90021D9F86431084698470DB0BDE882
:10066000F04F04B07047252902D03846C0475CE0FF
:100670009DF80420002302F0FC0263F3C3028DF80E
:10068000042002938DF80C309E461A469C4618466C
:100690009A4615F8011B002949D128B19DF804009C
:1006A0006AF3C3008DF804002AB19DF804206CF3AE
:1006B00000028DF804202BB19DF804306EF3410345
:1006C0008DF80430A1F13003092B11D800220A2043
:1006D000A1F130035FFA83FEBEF1090F36D9A1F113
:1006E0006103052B37D8A1F157030A2B2EDD0292A7
:1006F0002E290BD19DF8043043F001038DF804300E
:1007000015F8011BA1F13003092BF9D97A2929D158
:10071000297801350123692934D04BD858295CD078
:100720002BD8002995D025299FD02B468EE72D293F
:1007300006D0302907D02329AFD101239E46A8E750
:1007400001208246A5E701229446A2E700FB02327F
:1007500015F8011BBCE7A1F14103052BC7D8A1F196
:100760003703C2E76C2906D129786C29D1D1697881
:1007700002230235CFE70023CDE7632900F0928002
:100780006429D2D10A22022B049263D1073424F0C7
:100790000703D3E90001002803F1080471F1000305
:1007A00006DA40424FF02D0361EB41018DF80C3029
:1007B00001AA3AE073297BD00BD86F2963D0702946
:1007C000B3D19DF8043043F002038DF804300023C8
:1007D00003E075291DD07829A7D110220492A1F138
:1007E0005802514251419DF804200DF1300A61F345
:1007F0008202022B0AF82C2D38D1073424F007038B
:100800005246D3E9000103F10804FFF749FE5246BE
:100810000EE00A22022B04920FD1073424F00703C2
:10082000D3E9000103F1080401AAFFF739FE01AA88
:1008300041463846FFF796FD77E7012B01A920686E
:1008400004F1040A02D1FFF700FE01E0FFF7FDFD0D
:100850005446ECE720680028B8BF2D2304F1040AB1
:10086000BCBF40428DF80C3001A9ECE7012B51468A
:10087000206804F1040B03D1FFF7E7FD5C46C6E7EF
:10088000FFF7E3FDFAE7082301A920680493FFF7C7
:10089000DCFD01AA4146384604F1040AFFF762FD77
:1008A000544642E72178384604F1040AC047F7E786
:1008B0002368059301AA41463846FFF753FD04F12A
:1008C000040A0596ECE700BFA0000020504B514AF7
:1008D0001B684FF08041C3F3423313604FF08052E6
:1008E0000023C1F80C31C1F81031C1F838354A4B3A
:1008F000D2F80404C3F82005D2F80804C3F824058C
:10090000D2F80C04C3F82805D2F81004C3F82C055B
:10091000D2F81404C3F83005D2F81804C3F834052B
:10092000D2F81C04C3F84005D2F82004C3F84405EB
:10093000D2F82404C3F84805D2F82804C3F84C05BB
:10094000D2F82C04C3F85005D2F83004C3F854058B
:10095000D2F83404C3F86005D2F83804C3F864054B
:10096000D2F83C04C3F86805D2F84004C3F86C051B
:10097000D2F84424C3F8702503F54053FB22C3F892
:100980001825D1F80034DB0744BF6FF00103C1F82C
:1009900000344FF01023D3F80022002A03DBD3F8F1
:1009A0000432002B2FDA1D4B0122C3F80425D3F8A3
:1009B0000024002AFBD04FF010221521C2F80012AB
:1009C000D3F80024002AFBD04FF010231522C3F8DF
:1009D0000422124B1A46D3F800140029FBD0002140
:1009E000C3F80415D2F80034002BFBD0BFF34F8FAF
:1009F0000B490C4BCA6802F4E0621343CB60BFF3AF
:100A00004F8F00BFFDE7084B084A1A60704700BFD0
:100A1000440200103C05004000C0004000E00140DE
:100A200000ED00E00400FA05600000200090D00313
:100A3000F8B5194BD3F8200101282BD10021174C10
:100A4000C3F82011D3F8202194F84021012A14BFC3
:100A500001270F464FF0A00202FB074514BF0E46C8
:100A6000012602FB064285F88410C5F8801092F832
:100A700084200B4D022A08D105EB46053046FFF7CE
:100A800066FD6B7884F84031F8BD15F8172084F8BE
:100A90004021D860F8BD00BF00200040A000002029
:100AA0005C0F000008B54FF0A0430222C3F84C27AA
:100AB0004FF40022C3F80C250322C3F84C27002270
:100AC000C3F844273F4B40481321C3F80C151121AC
:100AD000C3F814154FF08051C3F824150821C3F84A
:100AE00000153A49C1F864010120C1F860014FF4D2
:100AF0008071C3F80413364BC02183F8021304211C
:100B0000196041F28830013800BF00BF00BF00BF4C
:100B100000BF00BF00BF00BF00BF00BF00BF00BFDD
:100B200000BF00BF00BF00BF00BF00BF00BF00BFCD
:100B300000BF00BF00BF00BF00BF00BF00BF00BFBD
:100B400000BF00BF00BF00BF00BF00BF00BF00BFAD
:100B500000BF00BF00BF00BF00BF00BF00BF00BF9D
:100B600000BF00BF00BF00BF00BF00BF00BF00BF8D
:100B700000BF00BF00BF00BF00BF00BFC3D1154B07
:100B80001548C3F804254FF01024FFF74FFD134814
:100B9000FFF74CFDD4F880101148FFF747FDD4F85B
:100BA00084101048FFF742FDD4F888100E48FFF774
:100BB0003DFD0E48D4F88C10FFF738FD0C48FFF7C8
:100BC00035FDFEE70020004079050000A000002070
:100BD00000E100E000E00140600F0000630F000052
:100BE0006A0F00007D0F0000900F0000A30F0000AF
:100BF000B60F00000649074A074B9B1A03DD043B6A
:100C0000C858D050FBDCFFF761FEFFF72FFB000058
:100C1000C80F00000000002080000020FEE7FEE773
:100C2000FEE7FEE7FEE7FEE7FEE7FEE7FEE7FEE79C
:100C300053B94AB9002908BF00281CBF4FF0FF3143
:100C40004FF0FF3000F07AB9ADF1080C6DE904CE39
:100C500000F006F8DDF804E0DDE9022304B0704797
:100C60002DE9F0478C460D460446089E002B51D1D5
:100C70008A4217466DD9B2FA82FEBEF1000F0BD040
:100C8000CEF1200C01FA0EF520FA0CFC02FA0EF758
:100C90004CEA050C00FA0EF44FEA174A250CBCFB8F
:100CA000FAF81FFA87F90AFB18CC45EA0C4508FB4D
:100CB00009F3AB420AD9ED1908F1FF3280F0238124
:100CC000AB4240F22081A8F102083D44ED1AA4B2E3
:100CD000B5FBFAF00AFB105544EA054400FB09F99C
:100CE000A14509D9E41900F1FF3380F00A81A1453B
:100CF00040F2078102383C44A4EB090440EA084072
:100D00000021002E61D024FA0EF4002334607360B9
:100D1000BDE8F0878B4207D9002E54D0002186E829
:100D200021000846BDE8F087B3FA83F1002940F0BE
:100D30008E80AB4202D3824200F2FA80841A65EBC5
:100D400003050120AC46002E3FD086E81010BDE818
:100D5000F08712B90127B7FBF2F7B7FA87FEBEF1A9
:100D6000000F34D1EB1B3A0C1FFA87FC0121B3FBB7
:100D7000F2F8250C02FB183345EA03450CFB08F397
:100D8000AB4207D9ED1908F1FF3002D2AB4200F2B5
:100D9000D1808046ED1AA3B2B5FBF2F002FB1055EC
:100DA00043EA05440CFB00FCA44507D9E41900F113
:100DB000FF3302D2A44500F2B8801846A4EB0C041D
:100DC00040EA08409DE731463046BDE8F087CEF165
:100DD000200405FA0EF307FA0EF720FA04F83A0C8D
:100DE00025FA04F448EA0308B4FBF2F14FEA184587
:100DF00002FB11441FFA87FC45EA044501FB0CF392
:100E0000AB4200FA0EF409D9ED1901F1FF3080F080
:100E10008A80AB4240F2878002393D44EB1A1FFAC8
:100E200088F5B3FBF2F002FB103345EA034500FB03
:100E30000CF3AB4207D9ED1900F1FF386FD2AB428A
:100E40006DD902383D44EB1A40EA01418FE7C1F108
:100E5000200722FA07F88B4005FA01F448EA030359
:100E600020FA07FE4FEA134CFD404EEA040EB5FB94
:100E7000FCF94FEA1E440CFB19551FFA83F844EAAB
:100E8000054509FB08F4AC4202FA01F200FA01FA46
:100E900008D9ED1809F1FF3043D2AC4241D9A9F18C
:100EA00002091D442D1B1FFA8EFEB5FBFCF00CFB46
:100EB00010554EEA054400FB08F8A04507D9E41890
:100EC00000F1FF3529D2A04527D902381C4440EA59
:100ED0000940A4EB0804A0FB02894C45C6464D46D8
:100EE00015D312D056B1BAEB0E0364EB050404FA25
:100EF00007F7CB401F43CC40376074600021BDE84A
:100F0000F0871846F8E69046E0E6C245EAD2B8EB2C
:100F1000020E69EB03050138E4E72846D7E74046AF
:100F200091E78146BEE7014678E702383C4445E751
:100F3000084608E7A8F102083D442BE7704700BFC8
:100F4000F8B500BFF8BC08BC9E467047F8B500BFB6
:100F5000F8BC08BC9E467047000000200001020358
:100F60000A0A0053544152540A0056616C756520B8
:100F7000696E205B305D203A2025780A0056616C4E
:100F8000756520696E205B315D203A2025780A0066
:100F900056616C756520696E205B325D203A2025B4
:100FA000780A0056616C756520696E205B335D20A0
:100FB0003A2025780A00454E440A0000000000004F
:080FC000ACF2FF7F010000000C
:100FC8000000000000000000000000000000000019
:100FD8000000000000000000000000000000000009
:100FE80000000000000000000000000000000000F9
:100FF80000000000000000000000000000000000E9
:1010080000000000000000000000000000000000D8
:1010180000000000000000000000000000000000C8
:101028000090D0032502000001020000000000002B
:0400000300000BF5F9
:00000001FF
