:1000000000600020B1140000D9140000DB140000CF
:10001000DD140000DF140000E11400000000000007
:10002000000000000000000000000000E3140000D9
:10003000E514000000000000E7140000E9140000CF
:10004000EB140000EB1400004D0E0000EB14000058
:10005000EB14000000000000EB140000EB140000A3
:10006000EB140000EB140000EB140000EB14000094
:10007000EB140000EB140000EB140000EB14000084
:10008000EB140000C10E0000EB140000EB140000A4
:10009000EB140000EB140000EB140000EB14000064
:1000A000EB140000EB140000000000000000000052
:1000B000EB140000EB140000000000000000000042
:1000C0000000000000000000000000000000000030
:1000D0000000000000000000000000000000000020
:1000E0000000000000000000000000000000000010
:1000F0000000000000000000000000000000000000
:1001000000000000000000000000000000000000EF
:1001100000000000000000000000000000000000DF
:1001200000000000000000000000000000000000CF
:1001300000000000000000000000000000000000BF
:1001400000000000000000000000000000000000AF
:10015000000000000000000000000000000000009F
:10016000000000000000000000000000000000008F
:10017000000000000000000000000000000000007F
:10018000000000000000000000000000000000006F
:10019000000000000000000000000000000000005F
:1001A000000000000000000000000000000000004F
:1001B000000000000000000000000000000000003F
:1001C000000000000000000000000000000000002F
:1001D000000000000000000000000000000000001F
:1001E000000000000000000000000000000000000F
:1001F00000000000000000000000000000000000FF
:1002000010B5054C237833B9044B13B10448AFF350
:1002100000800123237010BD80000020000000003A
:10022000002000000C4B43B10C480D4910B5AFF352
:1002300000800C48036823B910BD0A48036833B92D
:100240007047094B002BF7D0BDE810401847064B0C
:10025000002BF5D0184700BF000000000020000070
:10026000840000206C00002000000000154B002BD3
:1002700008BF134B9D46A3F5803A00218B460F46DD
:100280001348144A121A00F063F80F4B002B00D0E9
:1002900098470E4B002B00D0984700200021040007
:1002A0000D000D48002802D00C48AFF3008000F08C
:1002B0002BF82000290000F035FE00F011F800BFF7
:1002C00000000800006000200000000000000000A6
:1002D00080000020640200200000000000000000F8
:1002E00008B5074B044613B10021AFF30080054B5E
:1002F0001868836A03B19847204600F031F800BFC0
:1003000000000000FC1D000070B50D4E0D4CA41B3C
:10031000A4100025A54209D10B4E0C4C01F062FD42
:10032000A41BA4100025A54205D170BD56F82530A8
:1003300098470135EEE756F8253098470135F2E742
:100340006400002064000020640000206800002099
:1003500002440346934200D1704703F8011BF9E7BA
:10036000FEE700BF174B184A30B5012100240225D3
:1003700099601480C3F80441C3F80041C3F8F055F4
:10038000C3F82C26C3F83016C3F810050F48C3F87D
:100390001445C3F81805C3F800151960D3F8001107
:1003A0000029FBD001215960D3F804110029FBD0AA
:1003B000012199600021C3F80411C3F800111088CD
:1003C00030BD00BF00700040A0000020000102000E
:1003D00010B54FF040230121134AD9615961546887
:1003E000C3F80C459468C3F808450224C3F8544583
:1003F0000C324FF08054C3F82445C3F85015C3F8AD
:1004000044250722C3F84805C3F800251961D3F82D
:100410002021002AFBD00022C3F82021C3F80025A8
:1004200001225A6110BD00BFA000002070B5054632
:100430000846164601F010F93146044601F064F909
:100440000E4901F015FA0646284601F005F9314635
:100450000546204601F04EF8294601F0FDFA60B14C
:100460003146204601F048F8014628464FF0010485
:1004700001F0F2FA00B90446E0B270BD0000C842D3
:10048000013800BF00BF00BF00BF00BF00BF00BFFA
:1004900000BF00BF00BF00BF00BF00BF00BF00BF64
:1004A00000BF00BF00BF00BF00BF00BF00BF00BF54
:1004B00000BF00BF00BF00BF00BF00BF00BF00BF44
:1004C00000BF00BF00BF00BF00BF00BF00BF00BF34
:1004D00000BF00BF00BF00BF00BF00BF00BF00BF24
:1004E00000BF00BF00BF00BF00BF00BF00BF00BF14
:1004F00000BF00BF00BFC3D170472DE9F041546871
:10050000136906460F46154613F8012B002A44D1FD
:100510002B7A002B45D12B78990703D5EA68102A4E
:1005200041D1023C13F0090F08D1A046B8F1000FE9
:100530003EDC631E002CACBF1C1B1C46297A09B193
:100540003046B8472B789A070DD5EB68102B35D17C
:1005500030213046B8472B7813F0040F14BF5821D0
:1005600078213046B8472B78DB0708D5A046B8F18C
:10057000000F27DC631E002CACBF1C1B1C46D5F8EB
:10058000108018F8011B19BB2B7803F00903082B06
:1005900001D1002C1FDCBDE8F081002CB8DD013C4E
:1005A000B2E7013CB7E7082A08BF04F1FF34B9E716
:1005B00020213046B84708F1FF38B7E7082BD2D1E1
:1005C0003021CEE730213046B84708F1FF38CEE77A
:1005D0003046B847D5E720213046B847013CD8E738
:1005E000F0B50A69CC680123B0FBF3F5A54203D24C
:1005F00000261BB91370F0BD6343F5E7B0FBF3F5BC
:10060000CC6803FB1500B3FBF4F31EB9002D01DC2D
:10061000002BEED1092D02F101070ADD0C7814F050
:10062000040F14BF372457242C44147001363A4663
:10063000DFE73024F8E72DE9F84FD2F810A0D668AC
:1006400080468946934600270124002522462B46F2
:100650004046494601F03EFAB94208BFB04208D2CE
:10066000002654EA05030CD100238AF80030BDE8C7
:10067000F88F04FB07F306FB0533A4FB06451D4476
:10068000E4E722462B464046494601F023FA22463B
:100690002B4649460746404601F01CFA20462946AB
:1006A00090469946DBF80C20002301F013FA04462B
:1006B0000D4626B9002F02DC54EA0503D1D1092FDB
:1006C0000AF101020CDD9BF8003013F0040F14BF97
:1006D000372357231F448AF8007001369246C0E73B
:1006E0003023F7E70A4B002210B5C3F82021094A4E
:1006F000A02102F12004484304440244C3F84445C5
:10070000D2F8A020C3F8482501229A6010BD00BF8E
:1007100000200040A000002070B52B4C94F86051E0
:10072000EDB2012D22D094F86031002B0BBF0125D2
:10073000002500220122D8B994F860312BB901209C
:10074000FFF7D0FF032384F8603194F86031022B67
:1007500005D10020FFF7C6FF012384F86031A023F4
:1007600003FB0544022384F8A43070BD0022E2E7B5
:10077000A02303FB0543D3F8A0007F280DD8D3F8AE
:10078000A0201A4482F82010D3F8A0200132C3F828
:10079000A020012283F8A42070BD0C4E06EB42027B
:1007A000527894F860319A42FBD02846FFF79AFFBE
:1007B000A02303FB054306EB4505022283F8A42092
:1007C0006B7884F8603170BDA0000020001E00002E
:1007D00010B50E4B03EBC0020021C2F88011D3F814
:1007E0009821012101FA00F422EA0402C3F89821B9
:1007F0001030074A01FA00F0C2F84803C2F80803B3
:10080000D3F8983103B9516010BD00BFA00000209B
:1008100000100140034B0022C3F8082501225A6052
:100820001A61704700800040064B012200215A6087
:10083000C3F80415C3F810150321C3F80815DA60CE
:100840001A607047008000402DE9F0470820FFF74C
:1008500089FD2B4D47080320FFF784FD2A463946C2
:100860000446FFF7E3FD10B9E41B002CF3DCFFF7AF
:10087000DBFFDFF89880DFF8989000240025002641
:100880004FF0010AC8F84CA0D8F84C354B452DD98B
:10089000FFF7C0FF324620460023294601F01AF92F
:1008A0000026184C80464FF07C593746404600F0F1
:1008B000D3FE214600F0DCFF214600F01DFE494634
:1008C00000F022FF2146054601F0B2F830B9394662
:1008D00030462C4601F0ACF80028E7D10A492846FA
:1008E00000F012FF01F0D6F8BDE8F0870320FFF713
:1008F00039FDC01B4043241845EBE0750136C1E7C4
:10090000CDCCCC3D0000484400007A44008000403B
:10091000FF23F4000FB42DE9F04F8DB0A44A16ACBC
:1009200006AE54F8043BD2F89C71D2F8A081009432
:100930000596914619785D1C49B90021D9F8A03176
:10094000084698470DB0BDE8F04F04B07047252920
:1009500002D03846C0475CE09DF80420002302F036
:10096000FC0263F3C3028DF8042002938DF80C306F
:100970009E461A469C4618469A4615F8011B0029C1
:1009800049D128B19DF804006AF3C3008DF8040032
:100990002AB19DF804206CF300028DF804202BB1DD
:1009A0009DF804306EF341038DF80430A1F130035B
:1009B000092B11D800220A20A1F130035FFA83FE2F
:1009C000BEF1090F36D9A1F16103052B37D8A1F18A
:1009D00057030A2B2EDD02922E290BD19DF80430ED
:1009E00043F001038DF8043015F8011BA1F1300329
:1009F000092BF9D97A2929D12978013501236929C7
:100A000034D04BD858295CD02BD8002995D0252933
:100A10009FD02B468EE72D2906D0302907D02329D9
:100A2000AFD101239E46A8E701208246A5E7012217
:100A30009446A2E700FB023215F8011BBCE7A1F1C6
:100A40004103052BC7D8A1F13703C2E76C2906D1B2
:100A500029786C29D1D1697802230235CFE70023A8
:100A6000CDE7632900F092806429D2D10A22022BBB
:100A7000049263D1073424F00703D3E9000100286E
:100A800003F1080471F1000306DA40424FF02D0330
:100A900061EB41018DF80C3001AA3AE073297BD05B
:100AA0000BD86F2963D07029B3D19DF8043043F07F
:100AB00002038DF80430002303E075291DD0782946
:100AC000A7D110220492A1F15802514251419DF840
:100AD00004200DF1300A61F38202022B0AF82C2D5A
:100AE00038D1073424F007035246D3E9000103F15B
:100AF0000804FFF7A0FD52460EE00A22022B0492E2
:100B00000FD1073424F00703D3E9000103F10804EF
:100B100001AAFFF790FD01AA41463846FFF7EDFC18
:100B200077E7012B01A9206804F1040A02D1FFF73D
:100B300057FD01E0FFF754FD5446ECE7206800281C
:100B4000B8BF2D2304F1040ABCBF40428DF80C301D
:100B500001A9ECE7012B5146206804F1040B03D1F5
:100B6000FFF73EFD5C46C6E7FFF73AFDFAE70823CC
:100B700001A920680493FFF733FD01AA41463846D6
:100B800004F1040AFFF7B9FC544642E721783846DD
:100B900004F1040AC047F7E72368059301AA414618
:100BA0003846FFF7AAFC04F1040A0596ECE700BFFB
:100BB000A000002008B5094B09480122DA64D3F8E7
:100BC0004C15084B0909C3F8A411FFF7A3FE064909
:100BD0000648FFF79FFEBDE808401BE60080004086
:100BE000041E0000A000002040420F00151E00005F
:100BF0003F282DE9F041054605D9384A38485E219D
:100C0000FFF788FEFEE7374C04F10C08AA211022FA
:100C10004046FFF79DFBD4F8A87101234FF0A04692
:100C200003FA07F71846C6F80875FFF729FC62684B
:100C300003FA02F2C6F808251846FFF721FCC6F8A9
:100C40000C751846FFF71CFC0220C6F80C25FFF7B0
:100C500017FC1020FFF7BCFBC5F140039D08C6F848
:100C600008752A46AA21404603F00307FFF770FBE8
:100C7000C5F1100208EB050000216E1CFFF768FBB0
:100C800025440022BA4221D1626801234FF0A045D9
:100C900003FA02F21846C5F80825FFF7F1FBD4F86D
:100CA000A84103FA04F41846C5F80845C5F80C2510
:100CB000FFF7E6FB0220C5F80C45FFF7E1FB3046E5
:100CC000FFF786FBC5F80845BDE8F0812B7B9B0844
:100CD00063F07F032B730132D4E700BF271E0000AF
:100CE000551E0000A0000020504B514A1B684FF0D9
:100CF0008041C3F3423313604FF080520023C1F8A8
:100D00000C31C1F81031C1F838354A4BD2F804041F
:100D1000C3F82005D2F80804C3F82405D2F80C045F
:100D2000C3F82805D2F81004C3F82C05D2F814042F
:100D3000C3F83005D2F81804C3F83405D2F81C04FF
:100D4000C3F84005D2F82004C3F84405D2F82404BF
:100D5000C3F84805D2F82804C3F84C05D2F82C048F
:100D6000C3F85005D2F83004C3F85405D2F834045F
:100D7000C3F86005D2F83804C3F86405D2F83C041F
:100D8000C3F86805D2F84004C3F86C05D2F84424CF
:100D9000C3F8702503F54053FB22C3F81825D1F89A
:100DA0000034DB0744BF6FF00103C1F800344FF09B
:100DB0001023D3F80022002A03DBD3F80432002BDF
:100DC0002FDA1D4B0122C3F80425D3F80024002A92
:100DD000FBD04FF010221521C2F80012D3F80024E6
:100DE000002AFBD04FF010231522C3F80422124B27
:100DF0001A46D3F800140029FBD00021C3F80415CB
:100E0000D2F80034002BFBD0BFF34F8F0B490C4BB3
:100E1000CA6802F4E0621343CB60BFF34F8F00BF98
:100E2000FDE7084B084A1A60704700BF44020010F3
:100E30003C05004000C0004000E0014000ED00E043
:100E40000400FA05600000200090D003F8B5194BAB
:100E5000D3F8200101282BD10021174CC3F8201111
:100E6000D3F8202194F86021012A14BF01270F46EE
:100E70004FF0A00202FB074514BF0E46012602FBFD
:100E8000064285F8A410C5F8A01092F8A4200B4DD6
:100E9000022A08D105EB46053046FFF723FC6B78A4
:100EA00084F86031F8BD15F8172084F86021D86007
:100EB000F8BD00BF00200040A0000020001E000080
:100EC0002DE9F041164D0024264605F5C077A30014
:100ED00003F1804303F58833E0B2D3F840218AB1AF
:100EE000C3F84061D3F84021E200B9182A44D1F890
:100EF0000480D2F8801151B9FFF76AFCB8F1000FF5
:100F000000D0C0470134032CE1D1BDE8F081D2F814
:100F10008021D3F840150A44C3F84025EEE700BF0E
:100F2000A00000204FF0A0432DE9874802214FF098
:100F30000062C3F86C17C3F80C250322C3F86C27B2
:100F4000C3F868174FF08061C3F80C15C3F8682721
:100F50004FF08043D3F80C24B2F1011F22D00121BD
:100F6000A948C3F80413026942F01002026100228A
:100F7000C3F80021D3F800211960D3F80021002A1A
:100F800000F023810022C3F80021A049D3F80021FA
:100F90000122C1F88021C3F808239B4A136923F07A
:100FA000100313614FF0A0454FF002084FF4801377
:100FB000C5F85087C5F80C35954B964C96480327D5
:100FC00014224FF00009C5F85077C5F84497C3F8CC
:100FD0000C251122C3F814254FF08052C3F82425A4
:100FE0004FF0080B8D4AC3F800B54FF0010AC4F862
:100FF000A0214FF48072C4F89CA1C3F80423834B52
:101000000192C02183F8021304211960FFF782FCCA
:101010008348FFF77FFC4023C5F81887C5F80835DB
:101020008023C5F81877C5F81C87C5F80835C5F8BA
:101030001C77C5F82087019AC5F808250723C5F84D
:101040002077784863604FF080670623C4F8A831A2
:10105000C4F808B0FFF714FAC5F808757248FFF72E
:1010600059FC7248FFF70CFA4FF08043C5F80C7535
:10107000C4F8ACA1C3F878A5D3F87855554540F02D
:10108000A6806B48FFF746FC6A48C4F8B051FFF7EA
:1010900041FC69494FF0A0434FF000620F2E40F031
:1010A0009B80664B0122C4F8B4215A600022C4F828
:1010B0008021C4F88421C4F88821C4F88C21C4F8A4
:1010C0009021C4F89421C4F89821C3F808254F4A08
:1010D000202182F811134FF4003111604FF080424B
:1010E000D2F81814CD0305D5D2F8185405F003052D
:1010F000012D26D04FF08042444F434D012102265E
:10110000C2F81815C2F80463C7F8801128694FF0B7
:10111000000840F010002861C2F80481D2F80401F0
:1011200045489160FFF7ACF9D2F80451C2F8048148
:10113000681E45424541D2F80401C7F88011C2F843
:1011400008633F4AC4F884210021C4F88011D3F811
:10115000042502F50042C3F840254FF48032C3F85D
:101160004011C3F84423C3F80423D4F898210AB9E2
:1011700001221A60D4F8983143F00103C4F8983181
:10118000FFF752FB2F48FFF77BF9D4F8A40100F0DA
:1011900063FA2D49074600F069FC78B32B493846BD
:1011A0004FF0010600F058FC00B90646F6B20120E7
:1011B000FFF70EFB25B32648FFF7ACFB002E4FD1FF
:1011C0002448FFF7A7FB00234EE020BFD5E62248C6
:1011D000FFF7A0FB4D4657E70846C3F80825FFF781
:1011E0004FF94FF08065C3F80C250846C3F8085541
:1011F000FFF746F90136C3F80C554FE70646D6E728
:101200001648FFF787FBDBE700ED00E000E100E0B8
:1012100000200040A0000020771E000019070000F9
:10122000871E000090D003008E1E0000A0860100E3
:101230009E1E0000BE1E000020A1070000100140FD
:10124000B50B000060900F0000B37149009576491E
:10125000CC1E0000F81E0000AE1E0000D91E0000CB
:101260007C48FFF757FB01230120C4F8B831FFF792
:10127000BFFCFFF7D9FA0025774FDFF828822E460A
:101280004FF00109C7F84C90D7F84C35434540F270
:10129000AA80FFF7BFFAB5FBF6F50820FFF762F862
:1012A00041086E48FFF736FB29466D48FFF732FBD1
:1012B0000820FFF757F86B4A41082846FFF7B6F8B1
:1012C0000546002800F095806748FFF723FB0125BD
:1012D0000820C4F8BC51FFF745F8644F46080320C6
:1012E000FFF740F83A4631460546FFF79FF80028D9
:1012F000F5D0AD1B002DF2DCFFF796FA564FDFF864
:10130000A8A1DFF8A88100254FF00109C7F84C908B
:10131000D7F84C35434570D96D08FFF77BFA29465D
:101320005348FFF7F7FA0A2D78D15248FFF7F2FA3F
:1013300001232D20C4F8C031FFF75AFC42F210708F
:10134000FFF79EF8FFF780FA014605464A48FFF787
:10135000E1FA0020FFF74CFC42F21070FFF790F822
:10136000FFF772FA064601464448FFF7D3FA4FF4F6
:101370007A7143486943B1FBF6F1FFF7CBFA414A72
:1013800031462846FFF752F800284CD13E48FFF777
:10139000C1FA0123D4F8AC21002A49D0D4F8B021F5
:1013A000002A45D0D4F8B421002A41D0002B3FD0E8
:1013B000D4F8BC31002B3BD0D4F8B831C3B3D4F847
:1013C000C031ABB34FF0A0434FF08062C3F80C259F
:1013D0004FF000622D48C3F80825FFF79BFA2C4810
:1013E000FFF798FAFEE70420FEF7BCFF013605443C
:1013F00048E72848FFF78EFA6AE70320FEF7B2FFB6
:10140000524601463046FFF711F800283FF47EAF00
:1014100041F288300135FFF733F875E71E48FFF7D2
:1014200079FA002385E71D48FFF774FA0023B1E736
:101430004FF0A0434FF00062C3F80C254FF08062DC
:10144000C3F808251648FFF765FA1148FFF762FA56
:10145000C8E700BFE61E0000008000400A1F000031
:101460001D1F00000000A0402F1F0000CDCCCC3D70
:10147000491F0000591F0000851F00009A1F00002F
:10148000AF1F00000000C842C71F0000E31F00009C
:10149000EF1F00003C1F00006F1F0000D51F000061
:1014A000F41F0000FFF72401CDCC4C3EFF94F60062
:1014B0000649074A074B9B1A03DD043BC858D05026
:1014C000FBDCFFF711FCFEF7D1FE00000C20000052
:1014D0000000002080000020FEE7FEE7FEE7FEE7B8
:1014E000FEE7FEE7FEE7FEE7FEE7FEE780F00040EE
:1014F00002E000BF81F0004142001FBF5FEA4103EC
:1015000092EA030F7FEA226C7FEA236C6AD04FEAEB
:101510001262D2EB1363C1BFD21841404840414030
:10152000B8BF5B42192B88BF704710F0004F40F4E2
:10153000000020F07F4018BF404211F0004F41F4FE
:10154000000121F07F4118BF494292EA030F3FD0CA
:10155000A2F1010241FA03FC10EB0C00C3F12003DD
:1015600001FA03F100F0004302D5494260EB40006C
:10157000B0F5000F13D3B0F1807F06D340084FEAD7
:10158000310102F10102FE2A51D2B1F1004F40EBCC
:10159000C25008BF20F0010040EA03007047490034
:1015A00040EB000010F4000FA2F10102EDD1B0FAFF
:1015B00080FCACF1080CB2EB0C0200FA0CF0AABFF4
:1015C00000EBC25052421843BCBFD0401843704792
:1015D00092F0000F81F4000106BF80F40000013298
:1015E000013BB5E74FEA41037FEA226C18BF7FEA6F
:1015F000236C21D092EA030F04D092F0000F08BFB1
:101600000846704790EA010F1CBF0020704712F097
:101610007F4F04D1400028BF40F00040704712F1D6
:1016200000723CBF00F50000704700F0004343F03B
:10163000FE4040F4000070477FEA226216BF084671
:101640007FEA23630146420206BF5FEA412390EA34
:10165000010F40F4800070474FF0000304E000BF2A
:1016600010F0004348BF40425FEA000C08BF7047DB
:1016700043F0964301464FF000001CE050EA01029F
:1016800008BF70474FF000030AE000BF50EA0102B4
:1016900008BF704711F0004302D5404261EB4101A1
:1016A0005FEA010C02BF84460146002043F0B643C6
:1016B00008BFA3F18053A3F50003BCFA8CF2083AEB
:1016C000A3EBC25310DB01FA02FC634400FA02FCF4
:1016D000C2F12002BCF1004F20FA02F243EB0200FB
:1016E00008BF20F00100704702F1200201FA02FC5D
:1016F000C2F1200250EA4C0021FA02F243EB020050
:1017000008BF20EADC7070474FF0FF0C1CEAD05293
:101710001EBF1CEAD15392EA0C0F93EA0C0F6FD054
:101720001A4480EA010C400218BF5FEA41211ED032
:101730004FF0006343EA501043EA5111A0FB01311E
:101740000CF00040B1F5000F3EBF490041EAD371F3
:101750005B0040EA010062F17F02FD2A1DD8B3F16F
:10176000004F40EBC25008BF20F00100704790F0DE
:10177000000F0CF0004C08BF49024CEA502040EA30
:1017800051207F3AC2BFD2F1FF0340EAC2507047F6
:1017900040F400004FF00003013A5DDC12F1190F34
:1017A000DCBF00F000407047C2F10002410021FAA6
:1017B00002F1C2F1200200FA02FC5FEA310040F1BE
:1017C000000053EA4C0308BF20EADC70704792F037
:1017D000000F00F0004C02BF400010F4000F013A6F
:1017E000F9D040EA0C0093F0000F01F0004C02BF6A
:1017F000490011F4000F013BF9D041EA0C018FE7D9
:101800000CEAD15392EA0C0F18BF93EA0C0F0AD0DE
:1018100030F0004C18BF31F0004CD8D180EA010004
:1018200000F00040704790F0000F17BF90F0004F9D
:10183000084691F0000F91F0004F14D092EA0C0F7F
:1018400001D142020FD193EA0C0F03D14B0218BF12
:10185000084608D180EA010000F0004040F0FE4058
:1018600040F40000704740F0FE4040F440007047F4
:101870004FF0FF0C1CEAD0521EBF1CEAD15392EA73
:101880000C0F93EA0C0F69D0A2EB030280EA010C63
:1018900049024FEA402037D04FF0805343EA1111FC
:1018A00043EA10130CF000408B4238BF5B0042F15A
:1018B0007D024FF4000C8B4224BF5B1A40EA0C00FF
:1018C000B3EB510F24BFA3EB510340EA5C00B3EB31
:1018D000910F24BFA3EB910340EA9C00B3EBD10F1F
:1018E00024BFA3EBD10340EADC001B0118BF5FEA71
:1018F0001C1CE0D1FD2A3FF650AF8B4240EBC2509A
:1019000008BF20F0010070470CF0004C4CEA50205A
:101910007F32C2BFD2F1FF0340EAC250704740F4A9
:1019200000004FF00003013A37E792F0000F00F09B
:10193000004C02BF400010F4000F013AF9D040EA19
:101940000C0093F0000F01F0004C02BF490011F4AD
:10195000000F013BF9D041EA0C0195E70CEAD153A5
:1019600092EA0C0F08D142027FF47DAF93EA0C0F8C
:101970007FF470AF084676E793EA0C0F04D14B0270
:101980003FF44CAF08466EE730F0004C18BF31F022
:10199000004CCAD130F000427FF45CAF31F000431C
:1019A0007FF43CAF5FE700BF4FF0FF3C06E000BFB5
:1019B0004FF0010C02E000BF4FF0010C4DF804CDD8
:1019C0004FEA40024FEA41037FEA226C18BF7FEAE8
:1019D000236C11D001B052EA530C18BF90EA010FEA
:1019E00058BFB2EB030088BFC81738BF6FEAE17079
:1019F00018BF40F0010070477FEA226C02D15FEA15
:101A0000402C05D17FEA236CE4D15FEA412CE1D080
:101A10005DF8040B704700BF844608466146FFE747
:101A20000FB5FFF7C9FF002848BF10F1000F0FBD29
:101A30004DF808EDFFF7F4FF0CBF012000205DF822
:101A400008FB00BF4DF808EDFFF7EAFF34BF0120A7
:101A500000205DF808FB00BF4DF808EDFFF7E0FF40
:101A600094BF012000205DF808FB00BF4DF808ED91
:101A7000FFF7D2FF94BF012000205DF808FB00BFF4
:101A80004DF808EDFFF7C8FF34BF012000205DF8D6
:101A900008FB00BF42000ED2B2F1FE4F0BD34FF055
:101AA0009E03B3EB126209D44FEA002343F00043D4
:101AB00023FA02F070474FF00000704712F1610FF7
:101AC00001D1420202D14FF0FF3070474FF00000C9
:101AD000704700BF53B94AB9002908BF00281CBF8E
:101AE0004FF0FF314FF0FF3000F07AB9ADF1080C44
:101AF0006DE904CE00F006F8DDF804E0DDE902232C
:101B000004B070472DE9F0478C460D460446089E08
:101B1000002B51D18A4217466DD9B2FA82FEBEF12E
:101B2000000F0BD0CEF1200C01FA0EF520FA0CFCC0
:101B300002FA0EF74CEA050C00FA0EF44FEA174AC7
:101B4000250CBCFBFAF81FFA87F90AFB18CC45EA0A
:101B50000C4508FB09F3AB420AD9ED1908F1FF3235
:101B600080F02381AB4240F22081A8F102083D447D
:101B7000ED1AA4B2B5FBFAF00AFB105544EA05448D
:101B800000FB09F9A14509D9E41900F1FF3380F000
:101B90000A81A14540F2078102383C44A4EB0904C4
:101BA00040EA08400021002E61D024FA0EF4002300
:101BB00034607360BDE8F0878B4207D9002E54D0A3
:101BC000002186E821000846BDE8F087B3FA83F1DA
:101BD000002940F08E80AB4202D3824200F2FA80AC
:101BE000841A65EB03050120AC46002E3FD086E841
:101BF0001010BDE8F08712B90127B7FBF2F7B7FA6A
:101C000087FEBEF1000F34D1EB1B3A0C1FFA87FCA4
:101C10000121B3FBF2F8250C02FB183345EA03451A
:101C20000CFB08F3AB4207D9ED1908F1FF3002D2E3
:101C3000AB4200F2D1808046ED1AA3B2B5FBF2F0C0
:101C400002FB105543EA05440CFB00FCA44507D9F0
:101C5000E41900F1FF3302D2A44500F2B88018461F
:101C6000A4EB0C0440EA08409DE731463046BDE84D
:101C7000F087CEF1200405FA0EF307FA0EF720FAEA
:101C800004F83A0C25FA04F448EA0308B4FBF2F12C
:101C90004FEA184502FB11441FFA87FC45EA044548
:101CA00001FB0CF3AB4200FA0EF409D9ED1901F176
:101CB000FF3080F08A80AB4240F2878002393D4499
:101CC000EB1A1FFA88F5B3FBF2F002FB103345EA7A
:101CD000034500FB0CF3AB4207D9ED1900F1FF38C7
:101CE0006FD2AB426DD902383D44EB1A40EA014154
:101CF0008FE7C1F1200722FA07F88B4005FA01F4BB
:101D000048EA030320FA07FE4FEA134CFD404EEA6F
:101D1000040EB5FBFCF94FEA1E440CFB19551FFAE3
:101D200083F844EA054509FB08F4AC4202FA01F2E3
:101D300000FA01FA08D9ED1809F1FF3043D2AC429C
:101D400041D9A9F102091D442D1B1FFA8EFEB5FBD6
:101D5000FCF00CFB10554EEA054400FB08F8A045CA
:101D600007D9E41800F1FF3529D2A04527D9023858
:101D70001C4440EA0940A4EB0804A0FB02894C453E
:101D8000C6464D4615D312D056B1BAEB0E0364EBDE
:101D9000050404FA07F7CB401F43CC40376074605A
:101DA0000021BDE8F0871846F8E69046E0E6C24517
:101DB000EAD2B8EB020E69EB03050138E4E72846E6
:101DC000D7E7404691E78146BEE7014678E702380B
:101DD0003C4445E7084608E7A8F102083D442BE7E4
:101DE000704700BFF8B500BFF8BC08BC9E467047FE
:101DF000F8B500BFF8BC08BC9E4670470000002044
:101E00000001020354696D65725F5854414C203AD9
:101E10002025640A0054696D65725F54494D45522E
:101E2000203A2025640A002E2E2F2E2E2F636F6459
:101E300065626173652F7065726970686572616C47
:101E40005F6D6F64756C65732F6D63703430313204
:101E50005F782E6300417373657274696F6E2061E1
:101E600074206C696E6520256420696E2066696C3B
:101E7000652025732E0A000A4841524457415245B5
:101E800020544553540A0053544152540A00506F91
:101E90007765725F74657374203A20310A00444399
:101EA0005F44435F74657374203A20310A004443F1
:101EB0005F44435F74657374203A20300A004C45D8
:101EC000445F74657374203A20310A004372797359
:101ED00074616C203A20310A004372797374616C2A
:101EE000203A20300A004372797374616C5F746524
:101EF0007374203A20310A004372797374616C5F05
:101F000074657374203A20300A0043414C435F4F9C
:101F10004646534554203A20256C750A00417667A1
:101F20005F4F6666736574203A20256C750A00520F
:101F3000435F74657374203A20310A0052435F7422
:101F4000657374203A20300A004672657175656EBB
:101F50006379203A2025640A00467265715F6669DC
:101F60006C7465725F74657374203A20310A0046A0
:101F70007265715F66696C7465725F7465737420F5
:101F80003A20300A00504F545F746573745F526595
:101F9000616431203A2025640A00504F545F746513
:101FA00073745F5265616432203A2025640A0072BE
:101FB0006174696F5F52656164315F52656164325B
:101FC000203A2025640A00504F545F7465737420D2
:101FD0003A20310A00504F545F74657374203A20E0
:101FE000300A00537461747573203A20310A004539
:101FF0004E440A00537461747573203A20300A000D
:0420000000000000DC
:0820040068E2FF7F010000000B
:10200C0000000000000000000000000000000000C4
:10201C0000000000000000000000000000000000B4
:10202C0000000000000000000000000000000000A4
:10203C000000000000000000000000000000000094
:10204C000000000000000000000000000000000084
:10205C000000000000000000000000000000000074
:10206C000090D003250200000102000000000000D7
:04000003000014B134
:00000001FF
