:020000040000FA
:2000000000040020E90800007D050000C908000087050000910500009B05000000000000B6
:200020000000000000000000000000000D090000A505000000000000AF050000B90500008E
:20004000C3050000CD050000D7050000E1050000EB050000F5050000FF0500000906000047
:20006000130600001D06000027060000310600003B060000450600004F06000059060000A0
:20008000630600006D06000077060000810600008B060000950600009F060000A906000000
:2000A000B3060000BD060000C7060000D1060000DB060000E5060000EF060000F906000060
:2000C000030700000D07000017070000210700002B070000350700003F07000049070000B8
:2000E000530700005D07000067070000710700007B070000850700008F0700009907000018
:20010000A30700001FB500F003F88DE80F001FBD00F0E0BB1FB56FF00100009040100390E4
:20012000029001904FF010208069000B420900F01F045DF822300120A04083434DF82230D6
:20014000684600F045F91FBDF0B54FF6FF734FF4B4751A466E1E11E0A94201D3344600E029
:200160000C46091B30F8027B641E3B441A44F9D19CB204EB134394B204EB12420029EBD13A
:2001800098B200EB134002EB124140EA0140F0BDDE4992B00446D1E90001CDE91001FF2229
:2001A0004021684600F03CFB94E80F008DE80F00684610A902E004C841F8042D8842FAD1E6
:2001C00010216846FFF7C0FF1090AA208DF84400FFF7A0FF00F0F3F84FF01024A06910223A
:2001E0006946803000F002F9A069082210A900F0FDF800F0D8F84FF080510A694969006887
:200200004A43824201D8102070470020704710B5D0E900214FF0805002EB810302694469BF
:200220006243934209D84FF01022536903EB81030169406941438B4201D9092010BD5069D7
:20024000401C01D0002010BD0F2010BD70B501680446AF4D4FF01020072952D2DFE801F039
:20026000330419293C1E2500D4E9026564682946304600F0CDF82A462146304600F0B6F811
:20028000AA002146304600F09FFA002800D0032070BD00F051FB4FF4805007E0201DFFF79D
:2002A000AAFF0028F4D100F047FB60682860002070BD241D94E80700920000F085FA0028EC
:2002C000F6D00E2070BD8069401C12D0201DFFF79EFF0028F6D109E08069401C09D0201DD3
:2002E000FFF789FF0028EDD1606820B12046FFF74FFF042070BDFFF70DFF00F060F800F0CC
:2003000052F8072070BD10B50C46182802D00120086010BD2068FFF799FF206010BD4FF01E
:200320001024A069401C05D0A569A66980353079AA2808D06069401C2DD060690068401C7B
:2003400029D060692CE010212846FFF7FDFE316881421CD1A16901F18002C03105E030B1C1
:2003600008CA51F8040D984201D1012000E000208A42F4D158B1286810B1042803D0FEE7B5
:20038000284600F057F862496868086008E000F016F800F008F84FF480500168491C01D045
:2003A00000F0A4FAFEE7BFF34F8F5A4801685A4A01F4E06111430160BFF34F8FFEE74FF0EC
:2003C00010208169491C02D0806900F0AEB87047524A01681160121D416811604F4A816895
:2003E00010321160111DC068086070472DE9F04117460D460646002406E03046296800F091
:20040000A7F8641C2D1D361DBC42F6D3BDE8F08170B50C4605464FF4806608E0284600F012
:2004200084F8B44205D3A4F5806405F58055002CF4D170BD4168044609B1012500E0002530
:200440004FF010267069A268920000F0BDF9C8B1204600F01AF89DB17669A56864684FF4E2
:20046000002084420AD2854208D229463046FFF7CFFF2A4621463046FFF7B8FFFFF79FFFE2
:20048000FFF791FFFFF746FEF8E72DE9FF414FF01024616980680D0B01EB800000F6FF7059
:2004A000010B002000900190029002460390684601230BE0560902F01F0C50F8267003FA6E
:2004C0000CFC47EA0C0740F82670521CAA42F1D30AE04A0901F01F0650F8225003FA06F6DE
:2004E000354340F82250491C8029F2D3A169090B4A0901F01F0150F822408B409C4340F8F9
:200500002240FFF765FFBDE8FF8100005C090000000000200CED00E00400FA050006004053
:20052000144801680029FCD07047134A0221116010490B68002BFCD00F4B1B1D186008681C
:200540000028FCD00020106008680028FCD07047094B10B501221A60064A1468002CFCD082
:20056000016010680028FCD00020186010680028FCD010BD00E4014004E5014008208F498E
:2005800009680958084710208C4909680958084714208A4909680958084718208749096873
:2005A0000958084730208549096809580847382082490968095808473C2080490968095811
:2005C000084740207D4909680958084744207B4909680958084748207849096809580847F2
:2005E0004C207649096809580847502073490968095808475420714909680958084758209B
:200600006E490968095808475C206C49096809580847602069490968095808476420674929
:20062000096809580847682064490968095808476C20624909680958084770205F49096842
:200640000958084774205D4909680958084778205A490968095808477C2058490968095824
:20066000084780205549096809580847842053490968095808478820504909680958084709
:200680008C204E4909680958084790204B4909680958084794204949096809580847982072
:2006A00046490968095808479C204449096809580847A0204149096809580847A4203F4969
:2006C000096809580847A8203C49096809580847AC203A49096809580847B020374909685A
:2006E00009580847B4203549096809580847B8203249096809580847BC203049096809583C
:200700000847C0202D49096809580847C4202B49096809580847C820284909680958084720
:20072000CC202649096809580847D0202349096809580847D4202149096809580847D82049
:200740001E49096809580847DC201C49096809580847E0201949096809580847E4201749A8
:20076000096809580847E8201449096809580847EC201249096809580847F0200F49096871
:2007800009580847F4200D49096809580847F8200A49096809580847FC2008490968095853
:2007A00008475FF480700549096809580847000003480449024A034B70470000000000202F
:2007C000680900006809000040EA010310B59B070FD1042A0DD310C808C9121F9C42F8D034
:2007E00020BA19BA884201D9012010BD4FF0FF3010BD1AB1D30703D0521C07E0002010BDC5
:2008000010F8013B11F8014B1B1B07D110F8013B11F8014B1B1B01D1921EF1D1184610BDF3
:2008200002F0FF0343EA032242EA024200F005B87047704770474FF000020429C0F0128080
:2008400010F0030C00F01B80CCF1040CBCF1020F18BF00F8012BA8BF20F8022BA1EB0C0133
:2008600000F00DB85FEAC17C24BF00F8012B00F8012B48BF00F8012B70474FF0000200B53A
:20088000134694469646203922BFA0E80C50A0E80C50B1F12001BFF4F7AF090728BFA0E8AC
:2008A0000C5048BF0CC05DF804EB890028BF40F8042B08BF704748BF20F8022B11F0804F54
:2008C00018BF00F8012B7047014B1B68DB6818470000002009480A497047FFF7FBFFFFF794
:2008E00011FC00BD20BFFDE7064B1847064A1060016881F30888406800470000680900002E
:20090000680900001F030000000000201EF0040F0CBFEFF30881EFF30981886902380078BE
:20092000182803D100E00000074A1047074A12682C3212681047000000B5054B1B68054A4A
:200940009B58984700BD000007030000000000205809000004000000001000000000000069
:0809600000FFFFFF0090D0032F
:20100000900D0020A9800100AD2E00001B800100AD2E0000AD2E0000AD2E000000000000E1
:2010200000000000000000000000000001810100AD2E000000000000AD2E0000AD2E00009C
:20104000698101006F810100AD2E0000AD2E0000AD2E0000AD2E0000AD2E0000AD2E000092
:2010600075810100AD2E0000AD2E00007B810100AD2E000081810100878101008D810100D0
:20108000AD2E0000AD2E0000AD2E0000AD2E0000AD2E0000AD2E0000AD2E0000AD2E000078
:2010A000AD2E000093810100AD2E0000AD2E0000AD2E0000AD2E0000AD2E0000AD2E00001E
:2010C00099810100AD2E0000AD2E0000AD2E0000AD2E0000AD2E0000AD2E0000AD2E0000F8
:2010E000AD2E0000AD2E0000AD2E0000AD2E0000AD2E0000AD2E0000AD2E0000AD2E000018
:20110000AD2E0000AD2E000000F002F816F0B9FF0AA090E8000C82448344AAF10107DA45F4
:2011200001D116F0AEFFAFF2090EBAE80F0013F0010F18BFFB1A43F001031847B8740100FF
:20114000D87401000A4410F8014B14F00F0508BF10F8015B240908BF10F8014B6D1E05D0B5
:2011600010F8013B6D1E01F8013BF9D1641E03D0641E01F8015BFBD19142E4D37047000068
:201180000023002400250026103A28BF78C1FBD8520728BF30C148BF0B6070471FB500F062
:2011A00031F88DE80F001FBD8269034981614FF00100104470470000BD11000001B41EB4ED
:2011C00000B501F0FBFE01B40198864601BC01B01EBD0000F0B44046494652465B460FB458
:2011E00002A0013001B50648004700BF01BC86460FBC8046894692469B46F0BC704700000D
:201200000911000016F03ABF70B51B4C054609202070A01C00F061F85920A08029462046B2
:20122000BDE8704006F058BD06F061BD70B50C461249097829B1A0F160015E2908D3012098
:2012400013E0602804D0692802D043F201000CE020CC0B4E94E80E0006EB8000A0F5805015
:20126000241FD0F8806E2846B047206070BD01207047062070470000080000201C0000204A
:20128000C881010010B504460021012000F032F800210B2000F02EF80421192000F02AF8C7
:2012A00004210D2000F026F804210E2000F022F804210F2000F01EF80421C84300F01AF8E5
:2012C0000621162000F016F80621152000F012F82046FFF799FF002010BDA721018070477C
:2012E000FFF7A2BF002070470A487047FFF79EBF704770474907090E002806DA00F00F0088
:2013000000F1E02080F8141D704700F1E02080F80014704703F9004230B5FF4D0446062C5D
:20132000A9780ED2DFE804F0030E0E0E0509FFDF08E0022906D0FFDF04E0032902D0FFDF51
:2013400000E0FFDFAC7030BDF34810B5407E4108F14800F11A0005D00AF07BFBBDE8104041
:2013600006F058BB0AF05CFBF8E730B50446A1F120000D460A2847D2DFE800F005070C19CD
:20138000202532373C41FFDF3FE0207820283CD1FFDF3AE0E0488078052836D02078242809
:2013A00033D0252831D023282FD0FFDF2DE0207822282AD0232828D8FFDF26E020782228BA
:2013C00023D0FFDF21E0207822281ED024281CD026281AD0272818D0292816D0FFDF14E0BB
:2013E0002078252811D0FFDF0FE0207825280CD0FFDF0AE02078252807D0FFDF05E02078BA
:20140000282802D0FFDF00E0FFDF257030BD1FB50022ADF800200C88ADF802404B88ADF8DE
:201420000430CA88ADF808208988ADF806100021ADF80A10ADF80C1080B14FF6FF700621E0
:20144000844201D1ADF80210834201D1ADF80410824203D14FF44860ADF8080068460AF015
:201460002DFC06F0D7FA04B010BD70B514460D4606460FF00FFA60B90DB1A54201D90C2011
:2014800070BD002409E000BF56F824000FF002FA08B1102070BD641CE4B2AC42F4D30020E5
:2014A00070BD2DE9F04105461F4690460E46002400680FF03CFA10B11020BDE8F081286886
:2014C0000028A88802D0B84202D84FE00028F4D00920F2E72868025DB2B1611C475C152F3B
:2014E0002DD03BDC3AD2DFE807F03912222228282A2A31313939393939393939393922001D
:20150000025D32BB641CA4B2A142F9D833E0022ADED1A21C805C88F80000072801D24007A4
:2015200001D40A20C9E7307840F0010015E0D043C00707E0012A07D010E00620BDE710079A
:20154000A0F180500028F5D01846B6E73078820701D50B20B1E740F0020030702868005DB9
:20156000084484B2A888A04202D2B1E74FF4485381B2A142AED800209FE710B502785408B0
:2015800009D0012243F20223012C07D0022C0DD0032C13D10FE00020087005E08079032447
:2015A000B4EB901F0AD10A70002010BD8079B2EB901F03D1F7E780798009F4D0184610BD33
:2015C00038B50C460546694601F089F800280DD19DF80010207861F34700207055F8010F95
:2015E000C4F80100A888A4F80500002038BD38B51378C0B1022816D048A46D462468009490
:201600004C7905EB9414247864F34703137003280ED003F0FE0010700868C2F801008888F8
:20162000A2F8050038BD23F0FE0313700228EED1D8B240F00100EEE702210BF07DBC38B5C2
:201640000C460978222901D2082038BDADF800008DF8022068460AF038FA06F0DBF9050087
:2016600003D121212046FFF780FE284638BD1CB500208DF80000CDF80100ADF805002648C3
:2016800090F82200022801D0012000E000208DF8070068460AF086FA002800D0FFDF1CBD21
:2016A0002DE9FF478CB00026BDF8347082461C4690468DF81C60780703D560680FF0EAF812
:2016C00068B9154D4FF0010995F8220058B195F82300022807D160680FF029F918B11020F2
:2016E00010B0BDE8F087380702D5A08980281AD8780704D4B8F1000F01D0287E98B1E07D09
:20170000C0F300108DF81B00617D072069B101290BD00229E4D003E0900100200302FF01CA
:201720000429DDD118E00720DAE78DF817908DF819908DF8158060684F4678B107A9FFF74E
:201740001CFF0028CCD1606850F8011FCDF80F108088ADF8130005E00620C1E7CDF80F60EE
:20176000ADF81360E07B0028F6D1207C0028F3D1607C0028F0D1A07C0028EDD1E07CC00696
:20178000EAD18DF800A0BDF83400ADF80200A0680190A0680290FEA0D0E90010CDE90A106F
:2017A000E07C0AA901EB50101B3900788DF80C0095F8220030B195F82300022818D00328F4
:2017C00004D119E0F44800F08AFF00B1FFDF9DF81C008DF80E008DF818608DF816608DF836
:2017E0001A6009A968460AF0A5FA06F013F977E703208DF80D00EAE78DF80D70E7E7F0B51B
:201800009DB000228DF868208DF858208DF8602005468DF86C20129213921492159219B18E
:201820000FC912AC84E80F00DB4C193CA078052801D004280CD112986168884200D120B915
:201840001498E168884203D110B108201DB0F0BD1F26334618AA1AA912A8FFF722FE002857
:20186000F4D133461BAA16A914A8FFF71AFE0028ECD19DF85800C00701D00A20E6E7A08A51
:20188000410708D4A17D31B19DF86010890702D043F20120DAE79DF86010C90709D04007B1
:2018A00007D4208818B144F25061884201D90720CCE78DF8005003268DF8016001278DF8E6
:2018C0000270BDF84C208DF8032001A8129916F0D6FA68460AF08DFA06F09CF80028B5D13C
:2018E0008DF824508DF825608DF82670BDF854208DF827200AA8149916F0C1FA09A80AF00A
:201900009CFA06F087F80028A0D112AD241D95E80F0084E80F00002098E72DE9FE43040022
:2019200000D1FFDF20789C4E20F00F00801C20F0F000703020706068193E0178C91F1229D0
:2019400029D2DFE801F04BFD2809FDFD38FB282864FBFA2828FBFBF986883046FFF76CFE62
:201960000546304609F0B1FCB8B16068807985F83E0021212846FFF7F8FC304603F07FFA9F
:20198000304604F0E9FB314601200EF037FFA87F20F01000A877BDE8FE83207820F0F00009
:2019A0002030207006202072668060688079607206F013FADDE785882846FFF73DFE00B9EA
:2019C000FFDF60688078012800D0FFDF6068817903B02846BDE8F04309F0A6BD86883046F7
:2019E000FFF72AFE050000D1FFDF06F0F6F960683146C08828816068008968816068408935
:201A0000A88101200EF0FAFE0020A875C3E78078022808D000B1FFDF06F0DFF96568A8795A
:201A2000AD1C10B102E0FFDFB5E7FFDFF778B5F80290B046384605F08DFF060000D1FFDF8A
:201A40000022022148460BF06EFA040000D1FFDF22212046FFF789FCA17F012060F30101E3
:201A6000A177298B2181698B6181A98BA18184F822708DF8080002AA032148460BF053FA8B
:201A800000B9FFDFB088ADF80400B0788DF8060001AA052148460BF046FA00B9FFDFB088B2
:201AA000ADF80000F0788DF802006A46042148460BF039FA00B9FFDF062105F1120000F04B
:201AC0002BFE08B36879800700D5FFDF6979E07D61F34700E075D5F80600A0616889A083F0
:201AE000062105F10C0000F017FEB8B198F819104A08617862F347016170D8F81A10C4F847
:201B00000210B8F81E0012E0E07D20F0FE00801CE075D5F81200A061E88AE0E7607820F096
:201B2000FE00801C6070E868C4F80200288AE0800320FFF7F1FB2EE707E012E00DE0FFE755
:201B40002046BDE8FE4301F020BD06F046F916F8240F40F0040030701DE7BDE8FE4306F041
:201B60003CB9B178052908D00429E4D106F035F90220BDE8FE43FFF7CFBB80780028DAD0E9
:201B8000F07800F093FD06F028F90320F1E700000706050403020100A90100202DE9F04718
:201BA000054600780027000991460C463E46012873D0022872D0072809D00A2824D0FFDFA1
:201BC000A9F800600CB127806680002089E5D5F804C0DFF8AC874FF0010A9CF800004FF66E
:201BE000FF7113287AD008DC07280ED00E281FD0112826D0122806D186E016280BD01728DC
:201C000059D018286CD02146FBE012271026BCF804002146B8E01C270A26ECB3BCF80200EF
:201C2000A080686800792072686840796072C7E71B27092684B30320207268684088A0808B
:201C4000BEE79CF802003C28BAD010272C260CF1020C0CB3BCF80200A080BCF81800608284
:201C6000BCF818002082BCF81A00A082BCF81C00E0829CF8050004F108020CF10601FFF742
:201C8000B6FC9CF8040001289AD184F80FA00020207608F1040002E00AE06DE077E090E8A0
:201CA0000E00D8F81000C4E90930C4E9071287E7A9F8006089E720271126002CF8D0A18018
:201CC000686804F10A02807820726868807A60726968C878091DFFF78AFC71E729E0FFE713
:201CE00021270A26002CE3D0BCF80200A08068680079207268684079607298F8241021F0AC
:201D0000040188F824105BE722270B26002CCFD0BCF80400A0806868807820726868807988
:201D200000F009FD60726868C07900F004FDA07246E726271C26002CBAD0A1806868C07834
:201D4000607268688079A07208F1040090E80E00D8F81000C4E90530C4E903126868807807
:201D60003C2803D0432804D0FFDF29E784F808A026E70220207223E7287A022801D0FFDF95
:201D80001EE712271026688800F0B3FC18E7287A032836D0042834D0052832D0062801D010
:201DA000FFDF0DE711270926002C81D0B5F802804046FFF741FC90F822A0A4F80480687A39
:201DC0002072042140460BF0C9F8052140460BF0C5F8002140460BF0C1F8012140460BF0A8
:201DE000BDF8032140460BF0B9F8022140460BF0B5F8062140460BF0B1F8504600F056FC5E
:201E0000DEE62846BDE8F04701F0F6BC70B5012801D0FFDF70BD8DB22846FFF70DFC040037
:201E200000D1FFDF20782128F4D005F0D3FF80B1017821F00F01891C21F0F0011031017063
:201E40000221017245800020A075BDE8704005F0C4BF21462846BDE870401322FFF7EFBB26
:201E60002DE9F04116460C00804600D1FFDF307820F00F00801C20F0F00010303070207863
:201E8000022802D0FFDFBDE8F0814046FFF7D4FB050000D1FFDF61884FF6FF7000278142CC
:201EA00002D1A288824203D0814201D1A08848B105F093FF2068B0606068F0602089308246
:201EC000AF75E0E7A87D0128DDD17823002241460EF0EAFB0220A875D5E738B505460C466F
:201EE00008460EF0D7FC68B9203D062D30D2DFE805F00305222F271B062038BD60680EF0D8
:201F00000DFD08B1102038BD618820886A460AF0D5F805F07FFD0028F5D161680029F2D0BE
:201F2000BDF800200A8038BDA07800F0010120880AF0F5F808E02068BDE8384001F092BEE6
:201F4000618820880AF053F8BDE8384005F062BD072038BD70B505460C4608460EF0C0FC94
:201F600008B1102070BD202D07D0212D0DD0222D0BD0252D09D0072070BD2088A11C09F0F5
:201F8000F7FDBDE8704005F045BD062070BDFC481930704708B52821F94816F011F80120F3
:201FA000FFF7BAF9F64968461A3105F0A9FEF4489DF80020417E62F3470121F0010141768D
:201FC000002180F822104FF461710184022180F82310FFF7B9F900B1FFDF00F0DDFB01F0DE
:201FE000A7FA08BD10B50C464021204615F0C6FFA07F20F00300A077202020700020A07585
:2020000084F8230010BD70472DE9FC4107460EF041FC10B11020BDE8FC81D94E06F1190177
:20202000D6F819000090B6F81D50ADF80450F47F8DF806403846FFF7C3FA0028EBD1FFF7CC
:2020400083F90028E7D0009946F8191FB580B471E1E710B504460EF043FC08B1102010BDF2
:20206000C748C7492246407E1A314008FFF7BFFA002010BDFEB50D4604004FF0000712D0BA
:202080000822FFF7F2F9002812D1002609E000BF54F826006946FFF770FA002808D1761C48
:2020A000F6B2AE42F4D309F012FC10B143F20320FEBDB34E3776FCB100271AE054F82700F7
:2020C00002A9FFF75AFA00B1FFDF9DF808008DF8000054F8270050F8011FCDF801108088A1
:2020E000ADF80500684609F017FC00B1FFDF7F1CFFB2AF42E2D335760020FEBD2DE9F04728
:202100008AB01546894604001DD00F4608222946FFF7ABF9002810D1002612E054F826004F
:202120006946103000F0DBFA002806D13FB157F826000EF0AFFB10B110200AB046E5761C77
:20214000F6B2AE42EAD30026A5F101081CE000BF06F1010A0AF0FF0712E000BF54F8260085
:20216000017C4A0854F827100B7CB2EB530F05D106221130113115F056FE58B17F1CFFB258
:20218000AF42EBD30AF0FF064645E1DB4E4624B1012003E043F20520CFE7002009F0DCFBDD
:2021A00010B909F0E5FB10B143F20420C5E75CB300270DF1170825E054F8270069461030FD
:2021C00000F08DFA00B1FFDF54F82700102250F8111FCDF801108088ADF8050054F82710D1
:2021E0000DF1070015F04BFE96B156F827101022404615F044FE684609F073FB00B1FFDF1D
:202200007F1CFFB2AF42D7D3FFF731FA002094E7404601F01BFDEEE730B585B004460EF055
:2022200039FB18B960680EF082FB10B1102005B030BD60884AF2B811884206D82078504DF9
:2022400028B1012806D0022804D00720EFE7FFF77BF818E06078022804D0032802D043F242
:202260000220E4E785F82300C1B200200090ADF8040002292CD0032927D0FFDF684609F036
:20228000E8FB05F0C7FB0028D1D1606801F0D1FC207858B101208DF800000DF1010001F01D
:2022A000D5FC684609F08EFF00B1FFDF207885F82200FFF7DCF9608860B1288480B209F0B8
:2022C00043FB00B1FFDF0020B1E78DF80500D5E74020FAE74FF46170EFE710B504460EF0FB
:2022E000FFFA20B9606838B10EF018FB08B1102010BD606801F0AAFC214830F8201F618084
:20230000C178617080782070002010BD2DE9F8431446894606460EF0E3FAA0B948460EF0B8
:2023200006FB80B920460EF002FB60B9144DA878012800D13CB13178FF2906D049B143F2AB
:202340000400BDE8F8831020FBE7012801D00420F7E74FF00008B4B3052813D0042811D080
:202360006946204600F0F2F90028EAD1207D58B101280BD002280BD003280BD00720E0E7E7
:20238000900100200820DCE7424604E0012202E0022200E003222346174600200099FFF792
:2023A0007FF90028CDD1A0892880A07BE875BDF80000A882AF75BDF80000000701D5A089D8
:2023C00088B1A089288049460020FFF718FA0028B7D1A87805280BD0042809D0287DC007F3
:2023E00003D0032002E08020ECE70220FEF794FF86F800800020A4E72DE9FC41E54C06466F
:202400000D46A078022803D0032801D0082002E616B143F20400FEE506200AF041FD10B93E
:20242000A078032845D00CF093FC07460DF027FE381A00F0FF0806200AF02AFD0746062047
:202440000AF02EFD391AA078042809D000221144A8EB010111F0FF0F04D0032804D00DE00C
:202460000122F4E71320D6E5284605F073FAF0B14078F0B1284605F054FDE57001208DF8F7
:2024800000008DF801008DF802602088ADF80400E07D8DF80600684609F06CFD05F0BAFADD
:2024A0000028B4D1A078032805D0042010E00520B1E51220AFE5E07805F04CFA040000D15A
:2024C000FFDF607800B9FFDF6078401E60700520FEF722FF00209EE51CB510B143F2040000
:2024E0001CBDAC4CA078042803D0052801D008201CBD00208DF8000001218DF801108DF813
:202500000200684609F036FD05F084FA0028EFD1A078052804D00220FEF7FEFE00201CBD5F
:20252000E07800F0C3F80320F6E72DE9FC4180460D46032608460EF0FAF908B110206AE58C
:202540004046FFF779F8040004D02078222804D2082060E543F202005DE5A07F00F00307FF
:202560003DB1012F0AD000202946FEF750FF0600E5D1012F04D0FFDF30464CE50120F3E750
:20258000A07D2946022801D011B107E0112042E5684600F00EFA0028D1D16946404608F016
:2025A000A3FF0600E8D10120A075E5E770B50C460546FFF741F8010005D022462846BDE876
:2025C0007040FFF73CB843F2020070BD10B5012807D1704B9B78012B00D011B143F2040072
:2025E00010BD09F0E3F9BDE8104005F013BA012300F066B800231A46194600F061B870B540
:20260000064615460C4608460EF06AF918B928460EF066F908B1102070BD2A462146304613
:2026200009F034FD05F0F6F90028F5D121787F29F2D1052070BD7CB505460C4608460EF02E
:2026400029F908B110207CBD2846FEF7F5FF20B10078222804D208207CBD43F202007CBDA5
:202660004C4890F82400400701D511207CBD2178C80802D16078C20801D007207CBD8908F3
:2026800001D1800801D006207CBDADF8005020788DF8020060788DF803000220ADF8040071
:2026A000684609F0DCFA05F0B5F97CBD10B505F051F9040000D1FFDF6078401C607010BD39
:2026C0001CB5ADF800008DF802308DF803108DF80420684609F0A9FC05F09CF91CBD027863
:2026E000520804D0012A02D043F202207047FEF744BF70B50C0006460DD0FEF79DFF0500B9
:2027000000D1FFDFA68028892081288960816889A081A889E08170BD10B500231A4603E004
:20272000845C2343521CD2B28A42F9D30BB1002010BD012010BD00B530B1012803D0022876
:2027400001D0FFDF002000BDFF2000BD00220A8092B222F060020A800078062817D2DFE8CD
:2027600000F0160306090C1142F0110007E042F01D0009E042F0150006E042F0100040F023
:20278000020001E042F0100008800020704707207047000090010020FE48002101604160BD
:2027A000018170472DE9F743044692B0914640680EF0B4F840B160680EF0B9F820B96078C2
:2027C00000F00300022801D0012000E00020F14E307248460EF05EF818B1102015B0BDE8C4
:2027E000F08349460120FEF712FE0028F6D101258DF842504FF4C050ADF84000002210A972
:20280000284603F06FFF0028E8D18DF842504FF428504FF00008ADF8400047461C21684692
:20282000CDF81C8015F0CCFB9DF81C0008AA20F00F00401C20F0F00010308DF81C00207814
:202840008DF81D0061789DF81E0061F3420040F001008DF81E009DF800000AA940F0020066
:202860008DF800002089ADF83000ADF83270608907AFADF834000B97606810AC0E900A9434
:20288000684603F024FD0028A8D1BDF8200030808DF8425042F60120ADF840009DF81E0048
:2028A00008AA20F00600801C20F001008DF81E000220ADF83000ADF8340013A80E900AA924
:2028C000684603F004FD002888D1BDF820007080311D484600F033F9002887D18DF8425081
:2028E00042F6A620ADF840001C216846CDF81C8015F066FB9DF81C00ADF8345020F00F004A
:20290000401C20F0F00010308DF81C009DF81D0008AA20F0FF008DF81D009DF81E000AA9FF
:2029200020F0060040F00100801C8DF81E009DF800008DF8445040F002008DF80000CDE9F6
:202940000A4711A80E90ADF83050684603F0BFFC002899D1BDF82000F08000203EE73EB53F
:2029600004460820ADF8000020460DF093FF08B110203EBD21460120FEF749FD0028F8D1B3
:202980002088ADF804006088ADF80600A088ADF80800E088ADF80A007E4801AB6A4680883D
:2029A000002104F099F8BDF800100829E1D003203EBD1FB50446002002900820ADF8080007
:2029C000CDF80CD020460DF065FF10B1102004B010BD704802AA81884FF6FF7004F0BEFA50
:2029E0000028F4D1BDF80810082901D00320EEE7BDF800102180BDF802106180BDF804104C
:202A0000A180BDF80610E180E1E701B582B00220ADF800005F4802AB6A464088002104F011
:202A20005BF8BDF80010022900D003200EBD1CB5002100910221ADF8001001900DF050FF5D
:202A400008B110201CBD53486A4641884FF6FF7004F084FABDF800100229F3D003201CBDCB
:202A6000FEB54C4C06461546207A0F46C00705D008460DF00FFF18B11020FEBD0F20FEBDE2
:202A8000F82D01D90C20FEBD30460DF003FF18BB208801A903F064F90028F4D130788DF84C
:202AA0000500208801A903F0F6FF0028EBD100909DF800009DF8051040F002008DF800006D
:202AC000090703D040F008008DF800002088694603F07EFF0028D6D1ADF8085020883B469A
:202AE00002AA002103F0F8FFBDF80810A942CAD00320FEBD7CB505460020009001900888A2
:202B0000ADF800000C46284601950DF007FF18B920460DF0E5FE08B110207CBD15B1BDF803
:202B2000000050B11B486A4601884FF6FF7004F015FABDF8001021807CBD0C207CBD30B558
:202B400093B0044600200D460090142101A815F037FA1C2108A815F033FA9DF80000CDF858
:202B600008D020F00F00401C20F0F00010308DF800009DF8010020F0FF008DF801009DF87D
:202B8000200040F002008DF8200001208DF8460002E00000B801002042F60420ADF8440052
:202BA00011A801902088ADF83C006088ADF83E00A088ADF84000E088ADF842009DF8020084
:202BC00006AA20F00600801C20F001008DF802000820ADF80C00ADF810000FA8059001A977
:202BE00008A803F074FB002803D1BDF818002880002013B030BD00004FF0E0224FF40041BD
:202C00000020C2F880111D4908701D4990020860704770B5194D04462878A04202D00CB16E
:202C200000B1FFDF2878A0420DD01649144A2C700020CCB1134E144B1436151F012C03D072
:202C4000022C08D0FFDF70BD08600220086033604FF0407005E008600320086033604FF441
:202C600000001060286070BD086008604FF06070106070BD00B5FFDF00BD0000180000202B
:202C800008F5014000F50040380200200CF04DBF0449002008604FF0E0210220C1F88002ED
:202CA00070470000FC1F004010B50D2000F067F8C4B26FF0040000F062F8C0B2844200D096
:202CC000FFDF36490120086010BD70B50D2000F040F8334C0020C4F800010125C4F8045332
:202CE0000D2000F041F825604FF0E0216014C1F8000170BD10B50D2000F02BF828480121C7
:202D000041600021C0F80011BDE810400D2000F02BB8234910B5D1F80001012801D0FFDF60
:202D200010BD1E48001D00680022C0B2C1F80021BDE810400DF0D6BA10B51948D0F80011EC
:202D40000029FBD0FFF7E5FFBDE810400D2000F00BB800F01F02012191404009800000F112
:202D6000E020C0F88011704700F01F02012191404009800000F1E020C0F88012704700286C
:202D800006DA00F00F0000F1E02090F8140D03E000F1E02090F800044009704704D5004041
:202DA00000D00040704770477047704770477047704700004FF0E0214FF00070C1F88001D9
:202DC000C1F88002334B802283F80024C1F80001704700B5024604202F4903E001EBC0035D
:202DE0001B792BB1401EC0B2F8D2FFDFFF2000BD41F8302001EBC00100224A718A710122DE
:202E00000A7100BD244A002102EBC0000171704710B50446042800D3FFDF1F4800EBC4040F
:202E20002079012800D0FFDF6079A179401CC0B2814200D060714FF0E0214FF00070C1F855
:202E4000000210BD70B51348042590F80004124E4009124C042818D0FFDF16E0217806EBF5
:202E6000C1000279012A08D1427983799A4204D04279827156F8310080472078401CC0B251
:202E80002070042801D3002020706D1EEDB2E5D270BD000019E000E08804002048000020F7
:202EA0000F4A12680D498A420CD118470C4A12680A4B9A4206D101B500F074F8FFF774FF8E
:202EC000BDE80140074909680958084706480749054A064B7047000000000000BEBAFECA66
:202EE000A400002004000020900D0020900D002070B50C46054606F021FB21462846BDE822
:202F0000704007F006BC10B50DF07DFEFFF774FE0DF038FDBDE810400DF0CABD70B503468A
:202F2000002002466FF02F050EE09C5CA4F130060A2E02D34FF0FF3070BD00EB800005EBE2
:202F40004000521C2044D2B28A42EED370BD30B50A240AE0B0FBF4F304FB13008D1830307B
:202F600005F8010C521E1846D2B2002AF2D130BD30B500234FF6FF7510E0040A44EA00200E
:202F800084B2C85C6040C0F30314604005EA00344440E0B25B1C84EA40109BB29342ECD37E
:202FA00030BD000070B5154D2878401CC4B26878844202D0FFF7FBFE2C7070BD2DE9F041B4
:202FC0000E4C4FF0E02600BFFFF7EFFE20BF40BF20BF677820786070D6F80052FEF784F91A
:202FE000854305D1D6F8040210B92078B842EBD0FFF7DAFE0020BDE8F0810000A000002085
:203000002CFFFFFFDBE5B15100900100A700FFFF70000000808D5B0016425791AD5F58BC57
:203020008E702F5A0FAA100DBCD52BFD10B504460DF030FC08B1102010BD2078C0F302102F
:20304000042807D86078072804D3A178102901D8814201D2072010BDE078410706D42179BE
:203060004A0703D4000701D4080701D5062010BD002010BD70B514460D46064604F0AAFECD
:2030800080B10178182221F00F01891C21F0F001A03100F8081B214614F036FFBDE87040A3
:2030A00004F09BBE29463046BDE870401322FEF7C6BA2DE9F047064608A8894690E830041B
:2030C0001F4690461421284614F07AFF0021CAF80010B8F1000F03D0B9F1000F03D114E096
:2030E0003878C00711D020680DF0FAFBC0BBB8F1000F07D12068123028602068143068600D
:203100002068A8602168CAF800103878800724D560680DF003FC18BBB9F1000F21D0FEF75E
:2031200036FF0168C6F868118188A6F86C11807986F86E0101F03BFAF84FEF60626862B117
:2031400096F8680106F2691140081032FEF74FFA10223946606814F092FE0020BDE8F087F5
:2031600006E0606820B1E8606068C6F86401F4E71020F3E730B5054608780C4620F00F0097
:20318000401C20F0F001103121700020607095F8230030B104280FD0052811D0062814D054
:2031A000FFDF20780121B1EB101F04D295F8200000F01F00607030BD21F0F000203002E02A
:2031C00021F0F00030302070EBE721F0F0004030F9E7F0B591B0022715460C4606463A4653
:2031E000ADF80870082103AB07F074FF0490002810D004208DF804008DF80170E03409967F
:2032000005948DF818500AA968460BF087FB00B1FFDF012011B0F0BD2DE9F84F0646808A79
:203220000C4680B28246FEF707FA0546BB4F3078203F4FF005094FF000080F287CD2DFE810
:2032400000F07BA39D082C5B6A7CBADAFD97489797000121504609F06FFE040000D1FFDFDF
:2032600097F85C00C00701D0386E0BE0032104F11D000DF018F8D4F81D00A949B0FBF1F28E
:2032800001FB1200C4F81D0070686067B068A0672878252872D0FFDF70E00121504609F07B
:2032A0004BFE060000D1FFDF3078810702D52978252904D040F001003070BDE8F88F022027
:2032C0002070307F207106F11D002D36C4E90206F3E70121504609F02FFE050000D1FFDF86
:2032E0002878C10604D5072020703D356560E4E740F008002870E0E7E87F000700D5FFDF1D
:20330000307CB28800F0010301B05046BDE8F04F082108F014B805B9FFDF716821B1102242
:2033200005F1240014F0ABFD28212846FEF71DF8307A85F82000C0E7F8E00121504609F08F
:20334000FBFD050000D1FFDF022105F185000CF0AAFF0420207005F5B4706060B5F88500BA
:2033600020826E4810387C356561C4E90270A4E70121504609F0E0FD00B9FFDF3246294680
:203380005046BDE8F84F75E605B9FFDF2878212893D93079012803D1E87F40F00800E877BB
:2033A000324629465046FFF765FE2846BDE8F84F2321FDF7DABF3279A28004F10803082116
:2033C000504607F087FEE06010B184F8009074E745460121504609F0AFFD040000D1FFDFD8
:2033E00004F1620102231022081F09F04AFC05703179417061E70121504609F09DFD040051
:2034000000D1FFDF94F8840000F00300012859D1E87F10F0010003D194F8A010C9072AD065
:20342000D4F8602132B394F88330117C63F387011174AA7FD30963F3410100E072E0D4F890
:2034400060211174D4F8602160F30001117490B1D4F86001102205F12401883414F00FFDB9
:20346000207E40F001002076207820F0010004F8880919E0C0B994F88810C90714D0D4F89B
:203480005C218AB194F88330117C63F387011174AA7FD309D4F85C2163F341011174D4F80E
:2034A0005C2160F30001117494F88800800709D594F87C00D4F86421400804F17D011032E7
:2034C000FEF795F88DF8009094F884006A4600F003008DF8010094F888108DF8021094F8D5
:2034E000A0008DF803002946504601F049F82878252805D0212807D0FFDF2878222803D9E7
:2035000022212846FDF731FF0121504609F026FD00283FF4DDAEFFDFCFE60000E401002084
:2035200040420F00716881F80180C6E6FFDFC4E670B5FE4C002584F85C5025660BF0BBF9FD
:2035400004F11001204604F001FC84F8305070BD70B50D46FEF770F8040000D1FFDF4FF41A
:20356000B871284614F02CFD2434012105F1E0002C610BF0A1F9002800D0FFDF70BD0A46C2
:20358000014602F1E0000BF0B7B970B50546406886B00178082906D00B2933D00C292FD06D
:2035A000FFDF06B070BD46883046FEF745F8040000D1FFDF20782128F3D028281BD1686871
:2035C00002210C3000F0A6FFA8B168680821001D00F0A0FF78B104F12401304608F0CCFC80
:2035E00004F018FA00B1FFDF06B02046BDE870402921FDF7BABE06B0BDE8704004F0EDBB68
:2036000001218171686886883046FEF715F8040000D1FFDF20782128C3D06868817909B195
:20362000807808B1FFDFBCE704F0D7FBA07F000623D5E07FC00705D094F8200000F01F00BF
:20364000102818D05FF0050084F823002078292815D02428A5D1314604200DF0CFF8222125
:203660002046FDF782FE0121304609F077FC002897D0FFDF95E70620E6E70420E4E701217F
:20368000304609F059FC050000D1FFDF25212046FDF76BFE03208DF80000694605F1E0007C
:2036A0000BF021F90228BED00028BCD0FFDF78E72DE9F04788B09A46164688468146FDF702
:2036C000BBFF05003AD02878222837D3232835D0E87F000732D400270121484609F02CFC71
:2036E000040005D101210022484609F01CFC0446694600F06CFF009800B9FFDF00983CB105
:20370000E03404612878222804D0242802D005E0076103E025212846FDF727FE009801219D
:203720004170C0F824908680C0E9028A01A90BF0F5F8022802D0002800D0FFDF08B00DE523
:2037400070B586B00546FDF777FF0078222814D90121284609F0F0FB04002CD1FFDF2AE04D
:20376000B4F85E0004F1620630440178427829B121462846FFF72DFDB0B912E7ADF8042041
:203780000821284602AB07F0A5FC03900028F4D005208DF80000694604F1E0000BF0A3F80A
:2037A000022801D000B1FFDF02231022314604F15E0009F09CFAB4F860000028D0D1F0E624
:2037C00010B586B00446FDF737FF0078222811D90121204609F0B0FB040000D1FFDF0620C9
:2037E0008DF80000694604F1E0000BF07CF8002800D0FFDF06B010BD2DE9F84F05460078D8
:203800000C460027010904F1080090463E46BA46009002297ED0072902D00A2909D142E094
:2038200068680178082905D00B292CD00C292AD0FFDF73E114271C26002C6CD04088A080DB
:20384000FDF7FAFE5FEA000900D1FFDF99F8170009F118014008009AFDF7C9FE686880894A
:20386000208268684168C4F812108068C4F81600A07E20F0060040F00100A07699F81E006B
:2038800040F020014FE01A270A26002CD5D08088A080FDF7D1FE050000D1FFDF28460099C0
:2038A000FFF768FC3AE10CB1A88BA080287A4FF0010B0B287ED006DC01287CD0022808D0BC
:2038C000032804D137E00D2876D00E2875D0FFDF24E11E270926002CAFD0A088FDF7ACFE13
:2038E0005FEA000900D1FFDF287B00F003000128207A1DD020F001002072297B890861F355
:2039000041002072297BC90861F382002072297B090901E0F7E0AEE061F3C300207299F8C1
:203920001E0040F0400189F81E10F7E0C401002040F00100E0E713270D26002CA6D0A0885E
:20394000FDF77AFE81460121A08809F0F5FA050000D1FFDF686F817801F003010129217AC4
:2039600050D021F00101217283789B0863F3410121728378DB0863F38201217283781B094F
:2039800063F3C3012172037863F306112172437863F3C711217284F809A0C178A172027997
:2039A000E17A62F30001E1720279520862F34101E17203E029E067E04EE05FE0027992088F
:2039C00062F38201E1720279D20862F3C301E1724279217B62F3000121734279520862F350
:2039E000410121734279920862F3820121734079C00860F3C301217399F8000023282AD925
:203A0000262139E041F00101ADE71827102694B3A088FDF711FE00900121A08809F08CFA3F
:203A20005FEA000900D1FFDFE868A06099F8000040F0040189F8001099F80100800708D5E8
:203A400084F80CB000980078232867D92721009852E084F80CA061E015270F265CB1A08872
:203A6000FDF7EAFD81460622E8680099FFF76FFA84F80EB086E042E048463DE0162709265B
:203A8000ECB3287B207249E0287B19270E26B4B3C4F808A0A4F80CA0012807D0022808D0FD
:203AA00003280CD004280AD0FFDF15E084F808B001E002202072607A20F003000BE0697BA1
:203AC000042801F00F0141F080012172F3D1607A20F00300401C6072A088FDF7ADFD054684
:203AE000007821281AD0232800D0FFDF0121A08809F034FA22212846FDF737FC0EE0FFE705
:203B0000A8F800600FE00CB16888A080287A032822D0042809D005283AD0FFDFA8F8006010
:203B20000CB127806680002005E415270F26002CE6D0A088FDF780FD0121A08809F0FCF90E
:203B4000050000D1FFDFD5F81D0006220099FFF7FEF984F80EA0E1E717270926002CCFD0EF
:203B6000A088FDF769FD81460121A08809F0E4F9050000D1FFDF6878800701D5022000E0E9
:203B80000120207299F800002328C7D9272173E719270E26002CB3D0A088FDF74DFD5FEA82
:203BA000000900D1FFDFC4F808A0A4F80CA084F808A0A07A40F00300A07299F81E10C9098D
:203BC00061F38200A07299F81F2099F81E1012EAD11F05D099F8201001F01F01102925D0AD
:203BE00020F00800A07299F81F10607A61F3C3006072697A01F0030101298FD140F0040082
:203C00006072E87A217B60F300012173AA7A607B62F300006073EA7A520862F341012173DC
:203C2000A97A490861F34100607377E740F00800D8E710B5FA4C30B10146102204F12000D9
:203C400014F01DF9012084F8300010BD10B5044600F0ADFCF24920461022BDE810402031EF
:203C600014F00DB970B5EE4D06004FF0000413D00CF010FE08B110240CE006213046FFF778
:203C80004DF9411C05D028665FF0010085F85C0000E00724204670BD0020F7E7007810F0E1
:203CA0000F0204D0012A05D0022A0CD110E0000909D10AE00009012807D0022805D0032826
:203CC00003D0042801D0072070470870002070470620704705282AD2DFE800F003070F17FA
:203CE0001F00087820F0FF001EE0087820F00F00401C20F0F000103016E0087820F00F0048
:203D0000401C20F0F00020300EE0087820F00F00401C20F0F000303006E0087820F00F0029
:203D2000401C20F0F0004030087000207047072070472DE9F043804687B00D464FF00009A9
:203D400008460CF0F4FDA8B94046FDF775FC060003D0307822280BD104E043F2020007B063
:203D6000BDE8F08335B1B07FC10601D4000703D50820F4E71020F2E7F07F000701D50D2016
:203D8000EDE700270121404609F0D6F8040006D101210022404609F0C6F8040005D06946D5
:203DA00000F015FC009818B901E00420D7E7FFDF00980221E0344170C0F8248044610781EF
:203DC00001210171297801F00102017E62F3010101762A78520862F3820101762A789208E6
:203DE00062F3C30101762A78D20862F30411017624213046FDF7B9FA01A900980AF08EFDAD
:203E0000022801D000B1FFDF4846A8E72DE9FF4F9046844A0E4697B09A4607CA14AB4FF0A9
:203E2000000983E807001798FDF706FC050006D02878262806D008201BB0BDE8F08F43F277
:203E40000200F9E726B94046FFF7F0F80028F3D10121179809F070F8040000D1FFDF852EB9
:203E600027D007DCEEB1812E1DD0822E1DD0832E08D11CE0862E1ED0882E1ED0892E1ED01F
:203E80008A2E1ED00F2020710F281CD003F0A2FFD8B101208DF82C00201D0C902079B0B1D7
:203EA00032E10020EFE70120EDE70220EBE70320E9E70520E7E70620E5E70820E3E709201D
:203EC000E1E70A20DFE70720B6E71120B4E798F80000D4E91D764208A87F002162F3C710FC
:203EE000A87798F800008208E87F62F30000E87798F80000C209607862F34100607098F845
:203F000000000209207862F34710207098F80000C208607862F30000607098F80100607109
:203F200098F8000000F00102B07862F30100B070AA7FD20962F38200B070EA7F62F3C300E4
:203F4000B070627862F30410B0702278C0F3C000520932706278C2F34002727098F802206F
:203F6000F27071713171B978C1F3C00108405FEA000B2ED050460CF08DFC98BBDAF80C00CF
:203F80000CF088FC70BBDAF81C000CF083FC48BBDAF80C00A060DAF81C00E0607978607835
:203FA00001F0010140EA41006070B978C0B2C1F30011891E084060700020207705F11700E8
:203FC0006061681CA061B07800F0030001280AD04AE07978607801F00101FD2242EA41010A
:203FE0000840E1E719E0B87800F0030001283BD1321D711D404600F099FA307939790840D7
:204000008DF8480071797A7911408DF8281008432AD050460CF03EFC30B110200CE70000D3
:20402000C40100203C8301000AF1100004F5AE7304F18C028DE80D00002112AB5A462046CD
:20404000FFF737F80028E9D104F5B07204F1A403CDF800A0CDE9013201210AAB5A46204677
:20406000FFF727F80028D9D16078800722D4B078B978C0F38000C1F3800108431AD0307866
:2040800014AA397832F810204B00DA4002F00309B9F1030F01D14FF00209BBF1000F09D088
:2040A000012801D0042805D1012901D0042901D14FF00409A87F40F08000A877E87F6BF303
:2040C0000000E877607881074FF003000CD5A071BBF1000F18D100BF8DF84C0013AA29468D
:2040E000179800F04DFA0FE00221B9F1020F1AD0B9F1010F19D0B9F1040F22D00020A071A0
:20410000A87F20F08000A87725212846FDF72DF90BA904F1E0000AF0E6FB10B1022800D0DC
:20412000FFDF002088E6A171D6E7A1710D2104F1200013F045FF207840F00200207004202A
:20414000CAE70120A071DFE72DE9F04387B09046894604460025FDF76FFA070004D038783A
:20416000272804D00820FAE543F20200F7E50121204608F0E1FE040000D1FFDFA6795FEA88
:20418000090005D0012821D0B9F1020F26D110E0B8F1000F22D1012E05D0022E05D0032EA0
:2041A00005D0FFDF2DE00C252BE0012529E0022527E040460CF06EFBB0B9032E0ED1102210
:2041C000414604F11D0013F05AFE1AE0012E02D0022E03D104E0B8F1000F12D00720BEE5A4
:2041E00040460CF057FB08B11020B8E5102104F11D0013F0C3FE06214046FEF78FFEC4F873
:204200001D002078252140F0020020703846FDF7ACF82078C10713D020F0010020700220C5
:204220008DF8000004F11D0002908DF804506946C3300AF058FB022803D010B1FFDF00E011
:20424000257700208BE530B587B00D460446FDF7F3F960B10121204608F06EFE04000CD0BC
:2042600028460CF017FB28B1102007B030BD43F20200FAE72078400701D40820F5E72946D6
:2042800004F13D002022054613F0F9FD207840F01000207001070FD520F008002070072043
:2042A0008DF80000694604F1E00001950AF01BFB022801D000B1FFDF0020D6E770B50D4670
:2042C0000646FDF7B9F918B10078272817D102E043F2020070BD0121304608F02DFE04006F
:2042E00000D1FFDFA079022809D16078C00706D02A4621463046FEF76CFF10B10FE00820F8
:2043000070BDB4F860000E280BD204F1620102231022081F08F0B5FC01210170457000206A
:2043200070BD112070BD70B5064614460D4608460CF0B0FA18B920460CF0D2FA08B11020F8
:2043400070BDA6F57F40FF380ED03046FDF774F938B1417822464B08811C1846FDF747F95E
:2043600007E043F2020070BD2046FDF772FE0028F9D11021E01D0BF096FFE21D294604F115
:20438000170000F034F9002070BD2DE9F04104468AB015460E46002708460CF0C8FA18B91E
:2043A00028460CF0C4FA18B110200AB0BDE8F0812046FDF741F95FEA000804D098F80000C3
:2043C000272810D102E043F20200EEE70121204608F0B2FD040000D1FFDF2078400702D527
:2043E0006078800701D40820DFE7D4E91D01497801B18DB1407800B176B1ADB1EA1D06A86C
:20440000E16800F0F4F8102206A905F1170013F00AFD18B1042707E00720C6E71022E91D98
:2044200004F12D0013F02BFD2EB11022F11D04F11D0013F024FD2078252140F0020020703A
:204440004046FCF792FF2078C10715D020F00100207002208DF8000004F11D0002901030E1
:2044600003908DF804706946B3300AF03CFA022803D010B1FFDF00E02777002095E770B513
:204480000D4606460BB1072070BDFDF7D5F8040007D02078222802D3A07F800604D4082075
:2044A00070BD43F2020070BDADB12946304607F063FD03F0AFFA297C4A08A17F62F3C711F1
:2044C000A177297CE27F61F30002E277297C890884F8201004E0304607F071FD03F09AFAE7
:2044E000A17F21F02001A17770BD70B50D46FDF7A3F8040005D028460CF0F2F920B11020EF
:2045000070BD43F2020070BD29462046FEF732FE002070BD05E000BF10F8012B0AB1002010
:204520007047491E89B2F7D20120704710B5C4780B7864F300030B70C478640864F34103E5
:204540000B70C478A40864F382030B70C478E40864F3C3030B700379117863F30001117004
:2045600003795B0863F34101117003799B0863F3820111700079C00860F3C301117010BD24
:2045800070B51546064603F025FC040000D1FFDF207820F00F00801C20F0F0002030207055
:2045A00066802868A060BDE8704003F016BC10B5134C94F83000002808D104F12001A1F1E2
:2045C00010000AF0D2F9012084F8300010BD10B190F8B9202AB10A4890F8350018B1002077
:2045E00003E0B83001E0064834300860704708B50023009313460A4608F099FE08BD0000CE
:20460000C4010020F0B5007B059F1E4614460D46012800D0FFDF0C2030803A203880002CEF
:2046200008D0287A032806D0287B012800D0FFDF17206081F0BDA889FBE72DE9F04786B02A
:20464000144691F80C900E9A0D46B9F1010F0BD01021007B2E8A8846052807D0062833D0E4
:20466000FFDF06B0BDE8F0870221F2E7E8890C2100EB400001EB4000188033201080002CF2
:20468000EFD0E889608100271AE00096688808F1020301AA696900F084FF06EB0800801CDF
:2046A00007EB470186B204EB4102BDF8040090810DF1060140460E320AF0C0F97F1CBFB202
:2046C0006089B842E1D8CCE734201080E889B9F1010F11D0122148430E301880002CC0D04B
:2046E000E88960814846B9F1010F00D00220207300270DF1040A1FE00621ECE700966888E9
:2047000008F1020301AA696900F04BFF06EB0800801C86B2B9F1010F12D007EBC70004EBD3
:204720004000BDF80410C18110220AF10201103013F0A5FB7F1CBFB26089B842DED890E7FF
:2047400007EB470104EB4102BDF80400D0810AF10201404610320AF071F9EBE72DE9F0479A
:204760000E4688B090F80CC096F80C80378AF5890C20109902F10C044FF0000ABCF1030F20
:2047800008D0BCF1040F3ED0BCF1070F7DD0FFDF08B067E705EB850C00EB4C0018803120DE
:2047A0000880002AF4D0A8F1060000F0FF09558125E0182101A813F003FC00977088434615
:2047C00001AA716900F0EDFEBDF804002080BDF80600E080BDF808002081A21C0DF10A01E0
:2047E00048460AF02BF9B9F1000F00D018B184F804A0A4F802A007EB080087B20A346D1E61
:20480000ADB2D6D2C4E705EB850C00EB4C00188032200880002ABBD0A8F1050000F0FF0971
:20482000558137E000977088434601AA716900F0B8FE9DF80600BDF80410E180217942089F
:2048400060F3000162F34101820862F38201C20862F3C301020962F30411420962F34511BD
:20486000820962F386112171C0096071BDF80700208122460DF1090148460AF0DFF818B1A0
:2048800084F802A0A4F800A000E007E007EB080087B20A346D1EADB2C4D279E7A8F102000B
:2048A00084B205FB08F000F10E0CA3F800C035230B80002AA6D055819481009783B2708832
:2048C0000E32716900F06DFE62E72DE9F84F1E460A9D0C4681462AB1607A00F58070D080AF
:2048E000E089108199F80C000C274FF000084FF00E0A0D2873D2DFE800F09E070E1C2830F8
:204900003846556A73737300214648460095FFF779FEBDE8F88F207B9146082802D003283F
:2049200000D0FFDF378030200AE000BFA9F80A80EFE7207B9146042800D0FFDF37803120C4
:204940002880B9F1000FF1D1E3E7207B9146042800D0FFDF37803220F2E7207B91460228A0
:2049600000D0FFDF37803320EAE7207B1746022800D0FFDF3420A6F800A02880002FC8D0DD
:20498000A7F80A80C5E7207B1746042800D0FFDF3520A6F800A02880002FBAD04046A7F857
:2049A0000A8012E0207B1746052802D0062800D0FFDF1020308036202880002FA9D0E089B9
:2049C0007881A7F80E80B9F80E00B881A1E7207B9146072800D0FFDF37803720B0E72AE033
:2049E0004FF0120018804FF038001700288090D0E0897881A7F80E80A7F8108099F80C00DD
:204A00000A2805D00B2809D00C280DD0FFDF80E7207B0A2800D0FFDF01200AE0207B0B28D9
:204A200000D0FFDF042004E0207B0C2800D0FFDF052038736DE7FFDF6BE770B50C4605462D
:204A4000FCF7FAFD20B10078222804D2082070BD43F2020070BD0521284608F06DFA2060D7
:204A600008B1002070BD032070BD30B44880087820F00F00C01C20F0F000903001F8080BED
:204A80001DCA81E81D0030BC03F0A7B92DE9FF4784B00027824602970798904689461230CC
:204AA00004F03CFA401D20F00306079828B907A95046FFF7C2FF002854D1B9F1000F05D0FE
:204AC0000798017B19BB052504681BE098F80000092803D00D2812D0FFDF46E007990325DF
:204AE0004868B0B3497B42887143914239D98AB2B3B2011D08F0B1F80446078002E0079CC6
:204B0000042508340CB1208810B1032D29D02CE007980121123004F033FAADF80C000246B8
:204B200002AB2946504606F0D5FA070001D1A01C029007983A461230C8F80400A8F802A070
:204B400003A94046029B04F028FAD8B10A2817D200E006E0DFE800F007091414100B0D14DB
:204B60001412132014E6002012E6112010E608200EE643F203000BE6072009E60D2007E62E
:204B8000032005E6BDF80C002346CDE900702A465046079900F015FD57B9032D08D1079857
:204BA000B3B2417B406871438AB2011D08F069F8B9F1000FD7D0079981F80C90D3E72DE9E0
:204BC000FE4F91461A881C468A468046FAB102AB494606F07FFA050019D04046A61C2788DC
:204BE00008F0EEFA3246072629463B46009607F01AFF20882346CDE900504A4651464046D6
:204C000000F0DFFC002020800120BDE8FE8F0020FBE710B586B01C46AAB104238DF8003020
:204C20001388ADF808305288ADF80A208A788DF80E200988ADF80C1000236A462146FFF71C
:204C400025FF06B010BD1020FBE770B50D46052108F072F9040000D1FFDF294604F1120071
:204C6000BDE8704004F075B92DE9F8430D468046002603F0AFF804462878102878D2DFE860
:204C800000F0773B34533131123131310831313131312879001FC0B2022801D0102810D1A1
:204CA00014BBFFDF35E004B9FFDF0521404608F043F9007B032806D004280BD0072828D00D
:204CC000FFDF072655E02879801FC0B2022820D050B1F6E72879401FC0B2022819D010282D
:204CE00017D0EEE704B9FFDF13E004B9FFDF287901280ED1172137E00521404608F01CF91E
:204D0000070000D1FFDF07F11201404604F0FEF82CB12A4621464046FFF7A7FE29E0132150
:204D20004046FDF743FC24E004B9FFDF0521404608F002F9060000D1FFDF694606F112000F
:204D400004F0EEF8060000D0FFDFA988172901D2172200E00A46BDF80000824202D901467D
:204D600002E005E01729C5D3404600F03AFCD0E7FFDF3046BDE8F883401D20F0030219B181
:204D800002FB01F0001D00E000201044704713B5009848B10024684607F009FF002C02D1D4
:204DA000F74A009911601CBD01240020F4E72DE9F0470C4615462421204613F001F905B94F
:204DC000FFDFA87860732888DFF8B4A3401D20F00301AF788946DAF8000007F006FF0600E9
:204DE00000D1FFDF4FF000082660A6F8008077B109FB07F1091D0AD0DAF8000007F0F5FE39
:204E0000060000D1FFDF6660C6F8008001E0C4F80480298804F11200BDE8F04704F068B810
:204E20002DE9F047804601F112000D46814604F075F8401DD24F20F003026E7B1446296879
:204E4000386807F0FDFE3EB104FB06F2121D03D06968386807F0F4FE052008F019F8044606
:204E6000052008F01DF8201A012802D1386807F0B1FE49464046BDE8F04704F04EB870B574
:204E80000546052108F058F8040000D1FFDF04F112012846BDE8704004F038B82DE9F04FA2
:204EA00091B04FF0000BADF834B0ADF804B047880C46054692460521384608F03DF806006A
:204EC00000D1FFDF24B1A780A4F806B0A4F808B0297809220B20B2EB111F7DD12A7A04F1D6
:204EE000100138274FF00C084FF001090391102A73D2DFE802F072F2F1F07F08D2888D9F88
:204F00003DDBF3EEB6B6307B022800D0FFDFA88908EBC001ADF804103021ADF83410002CA5
:204F200025D06081B5F80E9000271DE004EBC708317C88F80E10F189A8F80C10CDF8009098
:204F40006888042304AA296900F02BFBBDF81010A8F8101009F10400BDF812107F1C1FFAC6
:204F600080F9A8F81210BFB26089B842DED80DE1307B022800D0FFDFE98908EBC100ADF8B0
:204F800004003020ADF83400287B0A90001FC0B20F90002CEBD06181B5F81090002725E035
:204FA000CDF800906888696903AA0A9B00F0F9FA0A9804EBC70848441FFA80F908F10C0220
:204FC00004A90F9809F03AFD18B188F80EB0A8F80CB0BDF80C1001E0D4E0CFE0A8F8101015
:204FE000BDF80E107F1CA8F81210BFB26089B842D6D8CBE00DA8009001AB22462946304696
:20500000FFF71BFBC2E0307B082805D0FFDF03E0307B082800D0FFDFE8891030ADF804008E
:205020003620ADF83400002C3FD0A9896181F189A18127E0307B092800D0FFDFA88900F1A3
:205040000C01ADF804103721ADF83410002C2CD06081E8890090AB89688804F10C02296986
:2050600056E0E8893921103080B2ADF80400ADF83410002C74D0A9896181287A0E280AD0F5
:2050800002212173E989E181288A0090EB8968886969039A3CE00121F3E70DA8009001AB67
:2050A000224629463046FFF759FB6FE0307B0A2800D0FFDF1220ADF80400ADF834704CB35C
:2050C000A9896181A4F810B0A4F80EB084F80C905CE020E002E031E039E042E0307B0B28A6
:2050E00000D0FFDF288AADF834701230ADF8040084B104212173A9896181E989E181298A93
:205100002182688A00902B8A688804F11202696900F047FA3AE0307B0C2800D0FFDF1220E0
:20512000ADF80400ADF834703CB305212173A4F80AB0A4F80EB0A4F810B027E00DA800907C
:2051400001AB224629463046FFF75CFA1EE00DA8009001AB224629463046FFF7B6FB15E032
:2051600034E03B21ADF80400ADF8341074B3A4F80690A4F808B084F80AB007E0FFDF05E0A0
:2051800010000020297A012917D0FFDFBDF80400AAF800006CB1BDF834002080BDF8040093
:2051A0006080BDF83400392803D03C2801D086F80CB011B00020BDE8F08F3C21ADF8040078
:2051C000ADF8341014B1697AA172DFE7AAF80000EFE72DE9F84356880F4680461546052122
:2051E000304607F0A9FE040000D1FFDF123400943B46414630466A6804F003F8BAE570B50B
:205200000D46052107F098FE040000D1FFDF294604F11200BDE8704003F08DBE70B50D4654
:20522000052107F089FE040000D1FFDF294604F11200BDE8704003F0ABBE70B5054605215A
:2052400007F07AFE040000D1FFDF04F1080321462846BDE870400422B1E470B505460521B1
:2052600007F06AFE040000D1FFDF214628462368BDE870400522A2E470B50646052107F02C
:205280005BFE040000D1FFDF04F1120003F046FE401D20F0030511E0011D00880322431838
:2052A00021463046FFF78BFC00280BD0607BABB2684382B26068011D07F019FD60684188F6
:2052C0000029E9D170BD70B50E46054602F082FD040000D1FFDF01202072667265802078CE
:2052E00020F00F00C01C20F0F00030302070BDE8704002F072BD2DE9F0438BB00D4614461C
:20530000814606A9FFF799FB002814D14FF6FF7601274FF420588CB103208DF800001020CE
:20532000ADF8100007A8059007AA204604A909F0A4FB78B107200BB0BDE8F0830820ADF828
:2053400008508DF80E708DF80000ADF80A60ADF80C800CE00698A17801742188C1818DF8A5
:205360000E70ADF80850ADF80C80ADF80A606A4602214846069BFFF789FBDCE708B5012253
:205380008DF8022042F60202ADF800200A4603236946FFF73EFC08BD08B501228DF80220C4
:2053A00042F60302ADF800200A4604236946FFF730FC08BD00B587B079B102228DF80020FF
:2053C0000A88ADF808204988ADF80A1000236A460521FFF75BFB07B000BD1020FBE709B159
:2053E000072316E40720704770B588B00D461446064606A9FFF721FB00280ED17CB106203A
:20540000ADF808508DF80000ADF80A40069B6A460821DC813046FFF739FB08B070BD05209A
:205420008DF80000ADF80850F0E700B587B059B107238DF80030ADF80820039100236A460A
:205440000921FFF723FBC6E71020C4E770B588B00C460646002506A9FFF7EFFA0028DCD103
:2054600006980121123003F08BFD9CB12178062921D2DFE801F0200505160318801E80B2C4
:20548000C01EE28880B20AB1A3681BB1824203D90C20C2E71020C0E7042904D0A08850B982
:2054A00001E00620B9E7012913D0022905D004291CD005292AD00720AFE709208DF800008C
:2054C0006088ADF80800E088ADF80A00A068039023E00A208DF800006088ADF80800E088D6
:2054E000ADF80A00A0680A25039016E00B208DF800006088ADF80800A088ADF80A00E088B9
:20550000ADF80C00A0680B25049006E00C208DF8000060788DF808000C256A46294630464C
:20552000069BFFF7B3FA78E700B587B00D228DF80020ADF8081000236A461946FFF7A6FA83
:2055400049E700B587B071B102228DF800200A88ADF808204988ADF80A1000236A4606215B
:20556000FFF794FA37E7102035E770B586B0064601200D46ADF808108DF800000146002376
:205580006A463046FFF782FA040008D12946304601F0BCFA0021304601F0D6FA204606B096
:2055A00070BDF8B51C4615460E46069F07F0F6FD2346FF1DBCB231462A46009407F0FFF914
:2055C000F8BD30B41146DDE902423CB1032903D0002330BC05F0B3BE0123FAE71A8030BCE5
:2055E000704770B50C460546FFF72FFB2146284601F09BFA2846BDE87040012101F0A4BA83
:2056000018B18178012938D101E010207047018842F60112881A914231D018DC42F6010254
:20562000A1EB020091422AD00CDC41B3B1F5C05F25D06FF4C050081821D0A0F57060FF3859
:205640001BD11CE001281AD002280AD117E0B0F5807F14D008DC012811D002280FD00328A9
:205660000DD0FF2809D10AE0B0F5817F07D0A0F58070033803D0012801D0002070470F2053
:2056800070470A281ED007DC18D2DFE800F0191B1F1F171F231D1F21102815D008DC0B2853
:2056A00012D00C2810D00D2816D00F2806D10DE011280BD084280BD087280FD003207047DB
:2056C0000020704705207047072070470F20704704207047062070470C20704743F2020081
:2056E000704738B50C46050041D06946FEF7D6FA002819D19DF80010607861F30200607075
:205700006946681CFEF7CAFA00280DD19DF80010607861F3C5006070A978C1F341010129F0
:2057200003D0022905D0072038BD217821F0200102E0217841F020012170410704D0A97814
:20574000C90861F386106070607810F0380F07D0A978090961F3C710607010F0380F02D180
:205760006078400603D5207840F040002070002038BD70B504460020088015466068FFF756
:20578000B0FF002816D12089A189884211D860688078C0070AD0B1F5007F0AD840F201200A
:2057A000B1FBF0F200FB1210288007E0B1F5FF7F01D90C2070BD01F201212980002070BD4D
:2057C00010B50478137864F3000313700478640864F3410313700478A40864F38203137093
:2057E0000478E40864F3C30313700478240964F3041313700478640964F345131370007874
:20580000800960F38613137031B10878C10701D1800701D5012000E0002060F3C713137066
:2058200010BD4278530702D002F0070306E012F0380F02D0C2F3C20300E001234A7863F322
:2058400002024A70407810F0380F02D0C0F3C20005E0430702D000F0070000E0012060F3F8
:20586000C5024A7070472DE9F04F95B00D00824612D01221284612F081FB4FF6FF7B05AA12
:205880000121584605F021FA0024264637464FF420586FF4205972E0102015B0BDE8F08F29
:2058A0009DF81E0001280AD1BDF81C1041450BD011EB09000AD001280CD002280CD0042CD5
:2058C0000ED0052C0FD10DE0012400E00224BDF81A6008E0032406E00424BDF81A7002E054
:2058E000052400E00624BDF81A10514547D12C74BEB34FF0000810AA4FF0070ACDE902824C
:20590000CDE900A80DF13C091023CDF8109042463146584605F08CFA08BBBDF83C002A4612
:20592000C0B210A909F08AF8C8B9AE81CFB1CDE900A80DF1080C0AAE40468CE841021323F6
:2059400000223946584605F073FA40B9BDF83C00F11CC01EC0B22A1D09F070F810B10320D3
:205960009BE70AE0BDF82900E881062C05D19DF81E00A872BDF81C00288100208DE705A8E4
:2059800005F0AFF900288BD0FFF77BFE85E72DE9F0471C46DDE90978DDF8209015460E0028
:2059A000824600D1FFDF0CB1208818B1D5B11120BDE8F087022D01D0012100E0002106F155
:2059C000140004F071F8A8F8000002463B462946504605F07FFBC9F8000008B9A41C3C609B
:2059E0000020E5E71320E3E7F0B41446DDE904528DB1002314B1022C09D101E0012306E08B
:205A00000D7CEE0703D025F0010501230D742146F0BC05F094BC1A80F0BC70472DE9FE4FBD
:205A200091461A881C468A468046FAB102AB494605F050FB050019D04046A61C278807F0F2
:205A4000BFFB3246072629463B46009606F0EBFF20882346CDE900504A4651464046FFF7C7
:205A6000C3FF002020800120BDE8FE8F0020FBE72DE9F04786B09146DDE90E460F468246BE
:205A800003AA05A904A8109D8DE807009846324621465046FFF77BFF049909B1012200E0B9
:205AA00000222A70002818D1F94A03AB1060059A009104F11400CDE901204A463946504603
:205AC00004F0A9FBA8B1092811D2DFE800F005080510100A0C0C0E00002006B068E7112052
:205AE000FBE70720F9E70820F7E70D20F5E70320F3E7BDF80C100498CDE90001434632468C
:205B000021465046FFF770FFE6E72DE9F04389B00D46DDE9108781461C461646142103A8BF
:205B200012F04EFA012002218DF810108DF80C008DF81170ADF8146064B1A278D20709D0A1
:205B40008DF81600E088ADF81A00A088ADF81800A068079008A80095CDE90110424603A9BF
:205B600048466B68FFF784FF09B0BDE8F083F0B58BB000240646069407940727089405A87E
:205B80000994019400970294CDE903400D4610232246304605F04CF978B90AA806A90194E8
:205BA00000970294CDE90310BDF8143000222946304604F013FF002801D0FFF762FD0BB0E0
:205BC000F0BD04F0B3BD2DE9FC410C468046002602F000F9054620780D287DD2DFE800F01A
:205BE000BC0713B325BD49496383AF959B00A848006820B1417841F010014170ADE04046FB
:205C000002F018F9A9E00421404607F095F9070000D1FFDF07F11401404603F0D9FEA5BB55
:205C200013214046FCF7C2FC97E00421404607F083F9070000D1FFDFE088ADF80000002081
:205C4000B8819DF80000010704D5C00602D5A088B88105E09DF8010040067ED5A088F881E2
:205C600005B9FFDF22462946404601F063FC022673E0E188ADF800109DF8011009060FD5A9
:205C8000072803D006280AD00AE024E00421404607F052F9060000D1FFDFA088F0810226A9
:205CA000CDB9FFDF17E00421404607F045F9070000D1FFDF07F1140004F06FFD90F0010FF7
:205CC00002D1E079000648D5387C022640F00200387405B9FFDF00E03EE0224629464046C4
:205CE00001F028FC39E00421404607F025F9017C002D01F00206C1F340016171017C21F0BE
:205D000002010174E7D1FFDFE5E702260121404602F0C2F821E00421404607F00DF9054639
:205D2000606800902089ADF8040001226946404602F0D3F8287C20F0020028740DE0002D38
:205D4000C9D1FFDFC7E7022600214046FFF766FA002DC0D1FFDFBEE7FFDF3046BDE8FC8141
:205D60003EB50C0009D001466B4601AA002005F0E1F820B1FFF785FC3EBD10203EBD00202C
:205D80002080A0709DF8050002A900F00700FDF7A1FF50B99DF8080020709DF8050002A908
:205DA000C0F3C200FDF796FF08B103203EBD9DF8080060709DF80500C109A07861F30410BD
:205DC000A0709DF80510890961F3C300A0709DF80410890601D5022100E0012161F3420087
:205DE0009DF8001061F30000A07000203EBD70B5144606460D4651EA040005D075B10846D9
:205E00000AF08CFD78B901E0072070BD2946304605F0F1F810B1BDE8704032E454B120463F
:205E20000AF07CFD08B1102070BD21463046BDE8704095E7002070BD2DE9FC5F0C46904645
:205E40000546002701780822007A3E46B2EB111F7ED104F10A0100910A31821E4FF0020A5C
:205E600004F1080B0191092A73D2DFE802F0ECDF05F427277AA9CD006888042107F05CF8F5
:205E8000060000D1FFDFB08920B152270726C2E02802002051271026002C7DD06888A0807A
:205EA0000120A071A88900220099FFF7A0FF002873D1A8892081288AE081D1E0B5F81290DE
:205EC000072824D1E87B000621D5512709F1140086B2002CE1D0A88900220099FFF787FF3C
:205EE00000285AD16888A08084F806A0A88920810120A073288A2082A4F81290A88A0090C3
:205F000068884B46A969019A01F0F1FAA8E0502709F1120086B2002C3ED0A8890022594608
:205F2000FFF765FF002838D16888A080A889E080287A072813D002202073288AE081E87B56
:205F4000C0096073A4F81090A88A0090688801E083E080E04B4604F11202A969D4E701208B
:205F6000EAE7B5F81290512709F1140086B2002C66D06888042106F0DFFF83466888A0801F
:205F8000A88900220099FFF732FF00286ED184F806A0A889208101E052E067E00420A07302
:205FA000288A2082A4F81290A88A009068884B46A969019A01F09BFAA989ABF80E104FE0B7
:205FC0006888FBF739FB07466888042106F0B4FF064607B9FFDF06B9FFDF687BC00702D09D
:205FE0005127142601E0502712264CB36888A080502F06D084F806A0287B594601F087FA25
:206000002EE0287BA11DF9E7FE49A8894989814205D1542706269CB16888A08020E05327D0
:206020000BE06888A080A889E08019E06888042106F082FF00B9FFDF55270826002CF0D121
:20604000A8F8006011E056270726002CF8D06888A080002013E0FFDF02E0012808D0FFDFEF
:20606000A8F800600CB1278066800020BDE8FC9F57270726002CE3D06888A080687AA071E9
:20608000EEE7401D20F0030009B14143091D01EB4000704713B5DB4A00201071009848B155
:2060A0000024684606F083FD002C02D1D64A009911601CBD01240020F4E770B50D460646B2
:2060C00086B014465C21284611F07AFF04B9FFDFA0786874A2782188284601F042FA0020BE
:2060E000A881E881228805F11401304603F055FC6A460121304604F0E8FD19E09DF80300ED
:20610000000715D5BDF806103046FFF730FD9DF80300BDF8061040F010008DF80300BDF84A
:206120000300ADF81400FF233046059A04F02EFF684604F0D6FD0028E0D006B070BD10B556
:206140000C4601F1140003F05FFC0146627C2046BDE8104001F03ABA70B50546042106F0A9
:20616000EBFE040000D1FFDF04F114010C46284603F02EFC21462846BDE8704003F02FBC94
:2061800070B58AB00C460646FBF756FA050014D02878222827D30CB1A08890B101208DF827
:2061A0000C0003208DF8100000208DF8110054B1A088ADF81800206807E043F202000AB01B
:2061C00070BD0920FBE7ADF8180005900421304606F0B2FE040000D1FFDF04F1140003F045
:2061E0002AFC000701D40820E9E701F0F3FD60B108A802210094CDE9011095F8232003A909
:2062000030466368FFF734FCD9E71120D7E72DE9F04FB2F802A0834689B015468946504605
:20622000FBF70AFA07460421504606F085FE0026044605964FF002080696ADF81C6007B916
:20624000FFDF04B9FFDF4146504605F0F7F950B907AA06A905A88DE80700424621465046AC
:206260006368FFF794FB674807AB0660DDE9051204F11400CDF80090CDE90320CDE901310B
:2062800097F82320594650466B6803F01DFC06000AD0022E04D0032E14D0042E00D0FFDF3F
:2062A00009B03046BDE8F08FBDF81C000028F7D00599CDE900104246214650466368FFF721
:2062C00093FBEDE7687840F008006870E8E72DE9F04F9BB004464FF000084A48ADF8548061
:2062E000ADF83080ADF85080A0F80880ADF81480ADF81880ADF82080ADF81C8000791646E3
:206300000D464746012808D0022806D0032804D0042802D008201BB0C4E720460AF0BAFAED
:20632000D0BB28460AF0B6FAB0BB60680AF0FFFA90BB606848B160892189884202D8B1F5AB
:20634000007F01D90C20E6E780460BAA06A92846FFF70FFA0028DED168688078C0F34100C1
:20636000022808D19DF8190010F0380F03D028690AF0D4FA80B905A92069FFF7B2F90028C0
:20638000C9D1206950B1607880079DF8150000F0380002D5D0B301E011E0B8BB9DF8140060
:2063A00080060ED59DF8150010F0380F03D060680AF0B4FA18B960680AF0B9FA08B1102011
:2063C000A9E707A96069FFF78CF90028A3D1606940B19DF81D0000F0070101293FD110F0FF
:2063E000380F3CD008A9A069FFF77BF9002892D19DF81C00800632D49DF8200080062ED421
:20640000A06904E0280200201400002027E040B19DF8210000F00701012920D110F0380F09
:206420001DD0E06818B10078C8B11C2817D20EAA611C2046FFF7C4F90120B94660F30F2749
:20644000BA4607468DF84E0042F60300ADF84C000DF13B0217A9286808F00FFB08B1072083
:2064600059E79DF85C0016A9CDF80090C01CCDE9019100F0FF0B00230BF20122514613A824
:2064800004F066FBF0BBBDF858000990FE482A8929690092CDE901106B89BDF82C202868ED
:2064A000069904F055FB01007ED120784FF0020AC10601D480062BD5ADF80C90606950B991
:2064C00007A906A8FFF7ADF99DF81D0020F00700401C8DF81D009DF81C008DF84E7040F0D7
:2064E000C8008DF81C0042F60210ADF84C000CA903AACDF800A0CDE90121002340F20322DF
:2065000013A800E01EE0079904F022FB01004BD1DD484D4608385B460089ADF839000EA85E
:20652000CDE90290CDF80490CDF810904FF007090022CDF80090BDF858104FF6FF7004F0CA
:206540004DFA10B1FFF79DF8E5E69DF83800000625D52946012060F30F218DF84E704FF477
:206560002450ADF84C00ADF8105062789DF81000002362F300008DF810006278CDF800A0E6
:20658000520862F341008DF8100004AACDE9012540F2032213A804F0DBFA010004D1606873
:2065A00088B32069A8B900E086E005A906A8FFF738F96078800706D49DF8150020F03800C2
:2065C0008DF8150005E09DF8140040F040008DF814008DF84E7042F60110ADF84C00208964
:2065E00040F20121B0FBF1F201FB1202606814ABCDF80080CDE90103002313A8059904F0B3
:20660000A7FA010058D12078C00729D0ADF80C50A06950B908A906A8FFF703F99DF821003D
:2066200020F00700401C8DF821009DF820008DF84E7040F040008DF8200042F60310ADF844
:206640004C0015A903AACDF800A0CDE90121002340F2032213A8089904F07AFA01002BD10B
:20666000E06868B32946012060F30F218DF84E7042F60410ADF84C00E068002302788DF8BA
:20668000602040788DF86100E06818AA4088ADF86200E06800798DF86400E068C088ADF824
:2066A0006500CDF80090CDE901254FF4027213A804F04EFA010003D0099800F0B3FF2AE66F
:2066C000714803210838017156B100893080BDF850007080BDF83000B080BDF85400F08068
:2066E000002018E670B501258AB016460B46012802D0022816D104E08DF80E504FF42050C4
:2067000003E08DF80E5042F60100ADF80C005BB10024601C60F30F2404AA08A9184608F0E2
:20672000ACF918B107204AE5102048E504A99DF820205548CDE90021801E02900023214688
:2067400003A802F2012204F003FA10B1FEF799FF35E54D4808380EB1C188318005710020FA
:206760002DE5F0B593B0074601268DF83E6041F60100ADF83C0012AA0FA93046FFF7B2FFDE
:20678000002848D1404C0025083CE7B31C2102A811F016FC9DF808008DF83E6040F020001F
:2067A0008DF8080042F60520ADF83C000E959DF83A00119520F00600801C8DF83A009DF8F0
:2067C00038006A4620F0FF008DF838009DF8390009A920F0FF008DF839000420ADF82C00C3
:2067E000ADF830000EA80A9011A80D900FA80990ADF82E5002A8FFF76AFD00280BD1BDF8EB
:206800000000608100E008E0BDF80400A081401CE0812571002013B0F0BD6581A581BDF851
:206820004800F4E72DE9F74F1749A0B00024083917940A79A146012A04D0022A02D008208A
:2068400023B02FE5CA88824201D00620F8E721988A46824201D10720F2E701202146ADF819
:2068600048004FF6FF7860F30F21ADF84A808DF86E0042F6020B06918DF87240ADF86CB05B
:20688000ADF870401CA901E0300200201391ADF8508012A804F049FA00252E462F460DABDB
:2068A000072212A9404604F043FA78B10A285DD195B38EB3ADF86450ADF866609DF85E0074
:2068C0008DF8144019AC012864D06BE09DF83A001FB3012859D1BDF8381059451FD118A833
:2068E00009A901940294CDE9031007200090BDF8361010230022404604F09AFAB0BBBDF8BD
:206900006000042801D006284AD1BDF82410219881423AD10F2093E73AE0012835D1BDF8BA
:206920003800B0F5205F03D042F6010188422CD1BAF80600BDF83610884201D1012700E0D0
:20694000002705B19EB1219881421ED118A809AA01940294CDE90320072000900D461023EC
:206960000022404604F064FA00B902E02DE04E460BE0BDF86000022801D0102810D1C0B25B
:2069800017AA09A908F05AF850B9BDF8369086E7052055E705A917A8221D08F06EF808B125
:2069A00003204DE79DF814000023001DC2B28DF8142022980092CDE901401BA8069904F0D1
:2069C000C7F810B902228AF80420FEF75AFE37E710B50B46401E88B084B205AA00211846EA
:2069E000FEF7EEFE00200DF1080C06AA05A901908CE80700072000900123002221464FF671
:206A0000FF7003F0EBFF0446BDF81800012800D0FFDF2046FEF735FE08B010BDF0B5FF4F36
:206A2000044687B038790E46032804D0042802D0082007B0F0BD04AA03A92046FEF799FEFB
:206A40000500F6D160688078C0F3410002280AD19DF80D0010F0380F05D0206909F05EFF14
:206A600008B11020E5E7208905AA21698DE807006389BDF810202068039904F069F810B1F8
:206A8000FEF7FFFDD5E716B1BDF814003080042038712846CDE7F8B50C0006460BD00146F3
:206AA0004FF6FF7500236A46284604F043FA20B1FEF7E7FDF8BD1020F8BD69462046FEF75D
:206AC00010FE0028F8D1A078314600F001032846009A04F05BFAEBE730B587B01446002279
:206AE0000DF1080C05AD01928CE82C00072200920A46014623884FF6FF7003F06FFFBDF8D8
:206B000014102180FEF7BDFD07B030BD70B50D46042106F011FA040000D1FFDF294604F1A8
:206B20001400BDE8704002F07FBF70B50D46042106F002FA040000D1FFDF294604F1140002
:206B4000BDE8704002F093BF70B50D46042106F0F3F9040000D1FFDF294604F11400BDE84D
:206B6000704002F0ABBF70B50546042106F0E4F9040000D1FFDF214628462368BDE8704039
:206B80000122FEF74BBF70B50646042106F0D4F9040000D1FFDF04F1140002F035FF401D3B
:206BA00020F0030511E0011D00880022431821463046FEF733FF00280BD0607CABB26843BE
:206BC00082B2A068011D06F092F8A06841880029E9D170BD70B50546042106F0ADF90400C5
:206BE00000D1FFDF214628466368BDE870400222FEF714BF70B50E46054601F0EBF8040069
:206C000000D1FFDF0120207266726580207820F00F00001D20F0F00040302070BDE870402C
:206C200001F0DBB810B50446012900D0FFDF2046BDE810400121FEF7F1BA2DE9F04F97B030
:206C40004FF0000A0C008346ADF814A0D04619D0E06830B1A068A8B10188ADF81410A0F84A
:206C600000A05846FAF7E8FC070043F2020961D0387822285CD30421584606F05DF905004C
:206C800005D103E0102017B0BDE8F08FFFDF05F1140002F0B9FE401D20F00306A0780128D8
:206CA00003D0022801D00720EDE7218807AA584604F00BF830BB07A804F013F810BB07A809
:206CC00004F00FF848B99DF82600012805D1BDF82400A0F52451023902D04FF45050D2E772
:206CE000E068B0B1CDE902A00720009005AACDF804A00492A2882188BDF81430584603F0D1
:206D00006DFE10B1FEF7BDFCBDE7A168BDF8140008809DF81F00C00602D543F20140B2E73B
:206D20000B9838B1A1780078012905D080071AD40820A8E74846A6E7C007F9D002208DF8B9
:206D40003C00A8684FF00009A0B1697C4288714391420FD98AB2B3B2011D05F07EFF804639
:206D6000A0F800A006E003208DF83C00D5F800804FF001099DF8200010F0380F00D1FFDFD0
:206D80009DF820002649C0F3C200084497F8231010F8010C884201D90F2074E72088ADF8BC
:206DA000400014A90095CDE90191434607220FA95846FEF75DFE002891D19DF8500050B929
:206DC000A078012807D1687CB3B2704382B2A868011D05F056FF002055E770B506461546CA
:206DE0000C460846FEF70CFC002805D12A4621463046BDE8704075E470BD13E570B51E464F
:206E000014460D000ED06CB1616859B160B10349C988814208D0072070BD00002802002056
:206E2000468301001020F7E72068FEF7E9FB0028F2D1324621462846BDE87040FFF747BA95
:206E400070B515460C0006D038B1FE490989814203D00720E0E71020DEE72068FEF7D0FB4D
:206E60000028D9D129462046BDE87040D6E570B5064686B00D461446104609F031FDD0BBFF
:206E8000606809F054FDB0BBA6F57F40FF3803D03046FAF7D1FB80B128466946FEF7E3FCBC
:206EA00000280CD19DF810100F2008293CD2DFE801F008060606060A0A0843F2020006B0C9
:206EC000AAE70320FBE79DF80210012908D1BDF80010B1F5C05FF2D06FF4C052D142EED0E0
:206EE0009DF8061001290DD1BDF80410A1F52851062907D200E028E0DFE801F00303040352
:206F00000303DCE79DF80A1001290ED1BDF80810B1F5245FD3D0A1F524510239CFD0012948
:206F2000CDD0022901D1CAE7FFDF606878B9002305AA2946304603F0FDFF10B1FEF7A1FB37
:206F4000BDE79DF81400800601D41020B7E76188224628466368FFF7BFFDB0E72DE9F0439F
:206F6000814687B088461446104609F0B9FC18B1102007B0BDE8F083002306AA4146484637
:206F800003F0D8FF18B100BFFEF77BFBF1E79DF81800C00602D543F20140EAE70025072778
:206FA00005A8019500970295CDE9035062884FF6FF734146484603F03BFF060013D16068C2
